{
	"casino-ethereum/contracts/Casino.sol": {
		"Casino": {
			"abi": [
				{
					"inputs": [
						{
							"internalType": "uint256",
							"name": "_minimumBet",
							"type": "uint256"
						}
					],
					"stateMutability": "nonpayable",
					"type": "constructor"
				},
				{
					"inputs": [],
					"name": "accountOwner",
					"outputs": [
						{
							"internalType": "address",
							"name": "",
							"type": "address"
						}
					],
					"stateMutability": "view",
					"type": "function"
				},
				{
					"inputs": [
						{
							"internalType": "uint256",
							"name": "numberSelected",
							"type": "uint256"
						}
					],
					"name": "bet",
					"outputs": [],
					"stateMutability": "payable",
					"type": "function"
				},
				{
					"inputs": [
						{
							"internalType": "address",
							"name": "player",
							"type": "address"
						}
					],
					"name": "checkPlayerExists",
					"outputs": [
						{
							"internalType": "bool",
							"name": "",
							"type": "bool"
						}
					],
					"stateMutability": "view",
					"type": "function"
				},
				{
					"inputs": [
						{
							"internalType": "uint256",
							"name": "numberWinner",
							"type": "uint256"
						}
					],
					"name": "distributePrizes",
					"outputs": [],
					"stateMutability": "nonpayable",
					"type": "function"
				},
				{
					"inputs": [],
					"name": "generateNumberWinner",
					"outputs": [],
					"stateMutability": "nonpayable",
					"type": "function"
				},
				{
					"inputs": [
						{
							"internalType": "address",
							"name": "ownerAddress",
							"type": "address"
						}
					],
					"name": "kill",
					"outputs": [],
					"stateMutability": "nonpayable",
					"type": "function"
				},
				{
					"inputs": [],
					"name": "maxAmountOfBets",
					"outputs": [
						{
							"internalType": "uint256",
							"name": "",
							"type": "uint256"
						}
					],
					"stateMutability": "view",
					"type": "function"
				},
				{
					"inputs": [],
					"name": "minimumBet",
					"outputs": [
						{
							"internalType": "uint256",
							"name": "",
							"type": "uint256"
						}
					],
					"stateMutability": "view",
					"type": "function"
				},
				{
					"inputs": [],
					"name": "numberOfBets",
					"outputs": [
						{
							"internalType": "uint256",
							"name": "",
							"type": "uint256"
						}
					],
					"stateMutability": "view",
					"type": "function"
				},
				{
					"inputs": [
						{
							"internalType": "address",
							"name": "",
							"type": "address"
						}
					],
					"name": "playerInfo",
					"outputs": [
						{
							"internalType": "uint256",
							"name": "amountBet",
							"type": "uint256"
						},
						{
							"internalType": "uint256",
							"name": "numberSelected",
							"type": "uint256"
						}
					],
					"stateMutability": "view",
					"type": "function"
				},
				{
					"inputs": [
						{
							"internalType": "uint256",
							"name": "",
							"type": "uint256"
						}
					],
					"name": "players",
					"outputs": [
						{
							"internalType": "address",
							"name": "",
							"type": "address"
						}
					],
					"stateMutability": "view",
					"type": "function"
				},
				{
					"inputs": [],
					"name": "totalBet",
					"outputs": [
						{
							"internalType": "uint256",
							"name": "",
							"type": "uint256"
						}
					],
					"stateMutability": "view",
					"type": "function"
				},
				{
					"stateMutability": "payable",
					"type": "receive"
				}
			],
			"devdoc": {
				"kind": "dev",
				"methods": {},
				"version": 1
			},
			"evm": {
				"assembly": "    /* \"casino-ethereum/contracts/Casino.sol\":78:5029  contract Casino {... */\n  mstore(0x40, 0x80)\n    /* \"casino-ethereum/contracts/Casino.sol\":415:418  100 */\n  0x64\n    /* \"casino-ethereum/contracts/Casino.sol\":382:418  uint256 public maxAmountOfBets = 100 */\n  0x04\n  sstore\n    /* \"casino-ethereum/contracts/Casino.sol\":937:1173  constructor(uint256 _minimumBet) {... */\n  callvalue\n  dup1\n  iszero\n  tag_1\n  jumpi\n  0x00\n  dup1\n  revert\ntag_1:\n  pop\n  mload(0x40)\n  sub(codesize, bytecodeSize)\n  dup1\n  bytecodeSize\n  dup4\n  codecopy\n  dup2\n  dup2\n  add\n  0x40\n  mstore\n  dup2\n  add\n  swap1\n  tag_2\n  swap2\n  swap1\n  tag_3\n  jump\t// in\ntag_2:\n    /* \"casino-ethereum/contracts/Casino.sol\":1052:1062  msg.sender */\n  caller\n    /* \"casino-ethereum/contracts/Casino.sol\":1037:1049  accountOwner */\n  0x00\n  dup1\n    /* \"casino-ethereum/contracts/Casino.sol\":1037:1062  accountOwner = msg.sender */\n  0x0100\n  exp\n  dup2\n  sload\n  dup2\n  0xffffffffffffffffffffffffffffffffffffffff\n  mul\n  not\n  and\n  swap1\n  dup4\n  0xffffffffffffffffffffffffffffffffffffffff\n  and\n  mul\n  or\n  swap1\n  sstore\n  pop\n    /* \"casino-ethereum/contracts/Casino.sol\":1139:1140  0 */\n  0x00\n    /* \"casino-ethereum/contracts/Casino.sol\":1124:1135  _minimumBet */\n  dup2\n    /* \"casino-ethereum/contracts/Casino.sol\":1124:1140  _minimumBet != 0 */\n  eq\n    /* \"casino-ethereum/contracts/Casino.sol\":1120:1166  if (_minimumBet != 0) minimumBet = _minimumBet */\n  tag_6\n  jumpi\n    /* \"casino-ethereum/contracts/Casino.sol\":1155:1166  _minimumBet */\n  dup1\n    /* \"casino-ethereum/contracts/Casino.sol\":1142:1152  minimumBet */\n  0x01\n    /* \"casino-ethereum/contracts/Casino.sol\":1142:1166  minimumBet = _minimumBet */\n  dup2\n  swap1\n  sstore\n  pop\n    /* \"casino-ethereum/contracts/Casino.sol\":1120:1166  if (_minimumBet != 0) minimumBet = _minimumBet */\ntag_6:\n    /* \"casino-ethereum/contracts/Casino.sol\":937:1173  constructor(uint256 _minimumBet) {... */\n  pop\n    /* \"casino-ethereum/contracts/Casino.sol\":78:5029  contract Casino {... */\n  jump(tag_7)\n    /* \"#utility.yul\":88:205   */\ntag_9:\n    /* \"#utility.yul\":197:198   */\n  0x00\n    /* \"#utility.yul\":194:195   */\n  dup1\n    /* \"#utility.yul\":187:199   */\n  revert\n    /* \"#utility.yul\":334:411   */\ntag_11:\n    /* \"#utility.yul\":371:378   */\n  0x00\n    /* \"#utility.yul\":400:405   */\n  dup2\n    /* \"#utility.yul\":389:405   */\n  swap1\n  pop\n    /* \"#utility.yul\":334:411   */\n  swap2\n  swap1\n  pop\n  jump\t// out\n    /* \"#utility.yul\":417:539   */\ntag_12:\n    /* \"#utility.yul\":490:514   */\n  tag_20\n    /* \"#utility.yul\":508:513   */\n  dup2\n    /* \"#utility.yul\":490:514   */\n  tag_11\n  jump\t// in\ntag_20:\n    /* \"#utility.yul\":483:488   */\n  dup2\n    /* \"#utility.yul\":480:515   */\n  eq\n    /* \"#utility.yul\":470:533   */\n  tag_21\n  jumpi\n    /* \"#utility.yul\":529:530   */\n  0x00\n    /* \"#utility.yul\":526:527   */\n  dup1\n    /* \"#utility.yul\":519:531   */\n  revert\n    /* \"#utility.yul\":470:533   */\ntag_21:\n    /* \"#utility.yul\":417:539   */\n  pop\n  jump\t// out\n    /* \"#utility.yul\":545:688   */\ntag_13:\n    /* \"#utility.yul\":602:607   */\n  0x00\n    /* \"#utility.yul\":633:639   */\n  dup2\n    /* \"#utility.yul\":627:640   */\n  mload\n    /* \"#utility.yul\":618:640   */\n  swap1\n  pop\n    /* \"#utility.yul\":649:682   */\n  tag_23\n    /* \"#utility.yul\":676:681   */\n  dup2\n    /* \"#utility.yul\":649:682   */\n  tag_12\n  jump\t// in\ntag_23:\n    /* \"#utility.yul\":545:688   */\n  swap3\n  swap2\n  pop\n  pop\n  jump\t// out\n    /* \"#utility.yul\":694:1045   */\ntag_3:\n    /* \"#utility.yul\":764:770   */\n  0x00\n    /* \"#utility.yul\":813:815   */\n  0x20\n    /* \"#utility.yul\":801:810   */\n  dup3\n    /* \"#utility.yul\":792:799   */\n  dup5\n    /* \"#utility.yul\":788:811   */\n  sub\n    /* \"#utility.yul\":784:816   */\n  slt\n    /* \"#utility.yul\":781:900   */\n  iszero\n  tag_25\n  jumpi\n    /* \"#utility.yul\":819:898   */\n  tag_26\n  tag_9\n  jump\t// in\ntag_26:\n    /* \"#utility.yul\":781:900   */\ntag_25:\n    /* \"#utility.yul\":939:940   */\n  0x00\n    /* \"#utility.yul\":964:1028   */\n  tag_27\n    /* \"#utility.yul\":1020:1027   */\n  dup5\n    /* \"#utility.yul\":1011:1017   */\n  dup3\n    /* \"#utility.yul\":1000:1009   */\n  dup6\n    /* \"#utility.yul\":996:1018   */\n  add\n    /* \"#utility.yul\":964:1028   */\n  tag_13\n  jump\t// in\ntag_27:\n    /* \"#utility.yul\":954:1028   */\n  swap2\n  pop\n    /* \"#utility.yul\":910:1038   */\n  pop\n    /* \"#utility.yul\":694:1045   */\n  swap3\n  swap2\n  pop\n  pop\n  jump\t// out\n    /* \"casino-ethereum/contracts/Casino.sol\":78:5029  contract Casino {... */\ntag_7:\n  dataSize(sub_0)\n  dup1\n  dataOffset(sub_0)\n  0x00\n  codecopy\n  0x00\n  return\nstop\n\nsub_0: assembly {\n        /* \"casino-ethereum/contracts/Casino.sol\":78:5029  contract Casino {... */\n      mstore(0x40, 0x80)\n      jumpi(tag_1, lt(calldatasize, 0x04))\n      shr(0xe0, calldataload(0x00))\n      dup1\n      0x7365870b\n      gt\n      tag_15\n      jumpi\n      dup1\n      0x7365870b\n      eq\n      tag_9\n      jumpi\n      dup1\n      0xc38a8afd\n      eq\n      tag_10\n      jumpi\n      dup1\n      0xcbf0b0c0\n      eq\n      tag_11\n      jumpi\n      dup1\n      0xe08a96cd\n      eq\n      tag_12\n      jumpi\n      dup1\n      0xf71d96cb\n      eq\n      tag_13\n      jumpi\n      dup1\n      0xfe5e1853\n      eq\n      tag_14\n      jumpi\n      jump(tag_2)\n    tag_15:\n      dup1\n      0x0a50e361\n      eq\n      tag_3\n      jumpi\n      dup1\n      0x2ca8c6d3\n      eq\n      tag_4\n      jumpi\n      dup1\n      0x4081d916\n      eq\n      tag_5\n      jumpi\n      dup1\n      0x4b114691\n      eq\n      tag_6\n      jumpi\n      dup1\n      0x674ddb53\n      eq\n      tag_7\n      jumpi\n      dup1\n      0x6ca3fc3b\n      eq\n      tag_8\n      jumpi\n      jump(tag_2)\n    tag_1:\n      jumpi(tag_2, calldatasize)\n      stop\n    tag_2:\n      0x00\n      dup1\n      revert\n        /* \"casino-ethereum/contracts/Casino.sol\":3274:3444  function generateNumberWinner() public {... */\n    tag_3:\n      callvalue\n      dup1\n      iszero\n      tag_18\n      jumpi\n      0x00\n      dup1\n      revert\n    tag_18:\n      pop\n      tag_19\n      tag_20\n      jump\t// in\n    tag_19:\n      stop\n        /* \"casino-ethereum/contracts/Casino.sol\":331:358  uint256 public numberOfBets */\n    tag_4:\n      callvalue\n      dup1\n      iszero\n      tag_21\n      jumpi\n      0x00\n      dup1\n      revert\n    tag_21:\n      pop\n      tag_22\n      tag_23\n      jump\t// in\n    tag_22:\n      mload(0x40)\n      tag_24\n      swap2\n      swap1\n      tag_25\n      jump\t// in\n    tag_24:\n      mload(0x40)\n      dup1\n      swap2\n      sub\n      swap1\n      return\n        /* \"casino-ethereum/contracts/Casino.sol\":1571:2021  function checkPlayerExists(address player) public view returns (bool) {... */\n    tag_5:\n      callvalue\n      dup1\n      iszero\n      tag_26\n      jumpi\n      0x00\n      dup1\n      revert\n    tag_26:\n      pop\n      tag_27\n      0x04\n      dup1\n      calldatasize\n      sub\n      dup2\n      add\n      swap1\n      tag_28\n      swap2\n      swap1\n      tag_29\n      jump\t// in\n    tag_28:\n      tag_30\n      jump\t// in\n    tag_27:\n      mload(0x40)\n      tag_31\n      swap2\n      swap1\n      tag_32\n      jump\t// in\n    tag_31:\n      mload(0x40)\n      dup1\n      swap2\n      sub\n      swap1\n      return\n        /* \"casino-ethereum/contracts/Casino.sol\":886:930  mapping(address => Player) public playerInfo */\n    tag_6:\n      callvalue\n      dup1\n      iszero\n      tag_33\n      jumpi\n      0x00\n      dup1\n      revert\n    tag_33:\n      pop\n      tag_34\n      0x04\n      dup1\n      calldatasize\n      sub\n      dup2\n      add\n      swap1\n      tag_35\n      swap2\n      swap1\n      tag_29\n      jump\t// in\n    tag_35:\n      tag_36\n      jump\t// in\n    tag_34:\n      mload(0x40)\n      tag_37\n      swap3\n      swap2\n      swap1\n      tag_38\n      jump\t// in\n    tag_37:\n      mload(0x40)\n      dup1\n      swap2\n      sub\n      swap1\n      return\n        /* \"casino-ethereum/contracts/Casino.sol\":124:151  address public accountOwner */\n    tag_7:\n      callvalue\n      dup1\n      iszero\n      tag_39\n      jumpi\n      0x00\n      dup1\n      revert\n    tag_39:\n      pop\n      tag_40\n      tag_41\n      jump\t// in\n    tag_40:\n      mload(0x40)\n      tag_42\n      swap2\n      swap1\n      tag_43\n      jump\t// in\n    tag_42:\n      mload(0x40)\n      dup1\n      swap2\n      sub\n      swap1\n      return\n        /* \"casino-ethereum/contracts/Casino.sol\":3530:4828  function distributePrizes(uint256 numberWinner) public {... */\n    tag_8:\n      callvalue\n      dup1\n      iszero\n      tag_44\n      jumpi\n      0x00\n      dup1\n      revert\n    tag_44:\n      pop\n      tag_45\n      0x04\n      dup1\n      calldatasize\n      sub\n      dup2\n      add\n      swap1\n      tag_46\n      swap2\n      swap1\n      tag_47\n      jump\t// in\n    tag_46:\n      tag_48\n      jump\t// in\n    tag_45:\n      stop\n        /* \"casino-ethereum/contracts/Casino.sol\":2055:3087  function bet(uint256 numberSelected) public payable {... */\n    tag_9:\n      tag_49\n      0x04\n      dup1\n      calldatasize\n      sub\n      dup2\n      add\n      swap1\n      tag_50\n      swap2\n      swap1\n      tag_47\n      jump\t// in\n    tag_50:\n      tag_51\n      jump\t// in\n    tag_49:\n      stop\n        /* \"casino-ethereum/contracts/Casino.sol\":198:223  uint256 public minimumBet */\n    tag_10:\n      callvalue\n      dup1\n      iszero\n      tag_52\n      jumpi\n      0x00\n      dup1\n      revert\n    tag_52:\n      pop\n      tag_53\n      tag_54\n      jump\t// in\n    tag_53:\n      mload(0x40)\n      tag_55\n      swap2\n      swap1\n      tag_25\n      jump\t// in\n    tag_55:\n      mload(0x40)\n      dup1\n      swap2\n      sub\n      swap1\n      return\n        /* \"casino-ethereum/contracts/Casino.sol\":1179:1565  function kill(address ownerAddress) public {... */\n    tag_11:\n      callvalue\n      dup1\n      iszero\n      tag_56\n      jumpi\n      0x00\n      dup1\n      revert\n    tag_56:\n      pop\n      tag_57\n      0x04\n      dup1\n      calldatasize\n      sub\n      dup2\n      add\n      swap1\n      tag_58\n      swap2\n      swap1\n      tag_29\n      jump\t// in\n    tag_58:\n      tag_59\n      jump\t// in\n    tag_57:\n      stop\n        /* \"casino-ethereum/contracts/Casino.sol\":382:418  uint256 public maxAmountOfBets = 100 */\n    tag_12:\n      callvalue\n      dup1\n      iszero\n      tag_60\n      jumpi\n      0x00\n      dup1\n      revert\n    tag_60:\n      pop\n      tag_61\n      tag_62\n      jump\t// in\n    tag_61:\n      mload(0x40)\n      tag_63\n      swap2\n      swap1\n      tag_25\n      jump\t// in\n    tag_63:\n      mload(0x40)\n      dup1\n      swap2\n      sub\n      swap1\n      return\n        /* \"casino-ethereum/contracts/Casino.sol\":451:475  address[] public players */\n    tag_13:\n      callvalue\n      dup1\n      iszero\n      tag_64\n      jumpi\n      0x00\n      dup1\n      revert\n    tag_64:\n      pop\n      tag_65\n      0x04\n      dup1\n      calldatasize\n      sub\n      dup2\n      add\n      swap1\n      tag_66\n      swap2\n      swap1\n      tag_47\n      jump\t// in\n    tag_66:\n      tag_67\n      jump\t// in\n    tag_65:\n      mload(0x40)\n      tag_68\n      swap2\n      swap1\n      tag_43\n      jump\t// in\n    tag_68:\n      mload(0x40)\n      dup1\n      swap2\n      sub\n      swap1\n      return\n        /* \"casino-ethereum/contracts/Casino.sol\":255:278  uint256 public totalBet */\n    tag_14:\n      callvalue\n      dup1\n      iszero\n      tag_69\n      jumpi\n      0x00\n      dup1\n      revert\n    tag_69:\n      pop\n      tag_70\n      tag_71\n      jump\t// in\n    tag_70:\n      mload(0x40)\n      tag_72\n      swap2\n      swap1\n      tag_25\n      jump\t// in\n    tag_72:\n      mload(0x40)\n      dup1\n      swap2\n      sub\n      swap1\n      return\n        /* \"casino-ethereum/contracts/Casino.sol\":3274:3444  function generateNumberWinner() public {... */\n    tag_20:\n        /* \"casino-ethereum/contracts/Casino.sol\":3323:3346  uint256 numberGenerated */\n      0x00\n        /* \"casino-ethereum/contracts/Casino.sol\":3371:3372  1 */\n      0x01\n        /* \"casino-ethereum/contracts/Casino.sol\":3365:3367  10 */\n      0x0a\n        /* \"casino-ethereum/contracts/Casino.sol\":3350:3362  block.number */\n      number\n        /* \"casino-ethereum/contracts/Casino.sol\":3350:3367  block.number % 10 */\n      tag_74\n      swap2\n      swap1\n      tag_75\n      jump\t// in\n    tag_74:\n        /* \"casino-ethereum/contracts/Casino.sol\":3349:3372  (block.number % 10) + 1 */\n      tag_76\n      swap2\n      swap1\n      tag_77\n      jump\t// in\n    tag_76:\n        /* \"casino-ethereum/contracts/Casino.sol\":3323:3372  uint256 numberGenerated = (block.number % 10) + 1 */\n      swap1\n      pop\n        /* \"casino-ethereum/contracts/Casino.sol\":3404:3437  distributePrizes(numberGenerated) */\n      tag_78\n        /* \"casino-ethereum/contracts/Casino.sol\":3421:3436  numberGenerated */\n      dup2\n        /* \"casino-ethereum/contracts/Casino.sol\":3404:3420  distributePrizes */\n      tag_48\n        /* \"casino-ethereum/contracts/Casino.sol\":3404:3437  distributePrizes(numberGenerated) */\n      jump\t// in\n    tag_78:\n        /* \"casino-ethereum/contracts/Casino.sol\":3313:3444  {... */\n      pop\n        /* \"casino-ethereum/contracts/Casino.sol\":3274:3444  function generateNumberWinner() public {... */\n      jump\t// out\n        /* \"casino-ethereum/contracts/Casino.sol\":331:358  uint256 public numberOfBets */\n    tag_23:\n      sload(0x03)\n      dup2\n      jump\t// out\n        /* \"casino-ethereum/contracts/Casino.sol\":1571:2021  function checkPlayerExists(address player) public view returns (bool) {... */\n    tag_30:\n        /* \"casino-ethereum/contracts/Casino.sol\":1635:1639  bool */\n      0x00\n        /* \"casino-ethereum/contracts/Casino.sol\":1891:1900  uint256 i */\n      dup1\n        /* \"casino-ethereum/contracts/Casino.sol\":1903:1904  0 */\n      0x00\n        /* \"casino-ethereum/contracts/Casino.sol\":1891:1904  uint256 i = 0 */\n      swap1\n      pop\n        /* \"casino-ethereum/contracts/Casino.sol\":1886:1993  for (uint256 i = 0; i < players.length; i++) {... */\n    tag_80:\n        /* \"casino-ethereum/contracts/Casino.sol\":1910:1917  players */\n      0x05\n        /* \"casino-ethereum/contracts/Casino.sol\":1910:1924  players.length */\n      dup1\n      sload\n      swap1\n      pop\n        /* \"casino-ethereum/contracts/Casino.sol\":1906:1907  i */\n      dup2\n        /* \"casino-ethereum/contracts/Casino.sol\":1906:1924  i < players.length */\n      lt\n        /* \"casino-ethereum/contracts/Casino.sol\":1886:1993  for (uint256 i = 0; i < players.length; i++) {... */\n      iszero\n      tag_81\n      jumpi\n        /* \"casino-ethereum/contracts/Casino.sol\":1963:1969  player */\n      dup3\n        /* \"casino-ethereum/contracts/Casino.sol\":1949:1969  players[i] == player */\n      0xffffffffffffffffffffffffffffffffffffffff\n      and\n        /* \"casino-ethereum/contracts/Casino.sol\":1949:1956  players */\n      0x05\n        /* \"casino-ethereum/contracts/Casino.sol\":1957:1958  i */\n      dup3\n        /* \"casino-ethereum/contracts/Casino.sol\":1949:1959  players[i] */\n      dup2\n      sload\n      dup2\n      lt\n      tag_83\n      jumpi\n      tag_84\n      tag_85\n      jump\t// in\n    tag_84:\n    tag_83:\n      swap1\n      0x00\n      mstore\n      keccak256(0x00, 0x20)\n      add\n      0x00\n      swap1\n      sload\n      swap1\n      0x0100\n      exp\n      swap1\n      div\n      0xffffffffffffffffffffffffffffffffffffffff\n      and\n        /* \"casino-ethereum/contracts/Casino.sol\":1949:1969  players[i] == player */\n      0xffffffffffffffffffffffffffffffffffffffff\n      and\n      sub\n        /* \"casino-ethereum/contracts/Casino.sol\":1945:1982  if (players[i] == player) return true */\n      tag_87\n      jumpi\n        /* \"casino-ethereum/contracts/Casino.sol\":1978:1982  true */\n      0x01\n        /* \"casino-ethereum/contracts/Casino.sol\":1971:1982  return true */\n      swap2\n      pop\n      pop\n      jump(tag_79)\n        /* \"casino-ethereum/contracts/Casino.sol\":1945:1982  if (players[i] == player) return true */\n    tag_87:\n        /* \"casino-ethereum/contracts/Casino.sol\":1926:1929  i++ */\n      dup1\n      dup1\n      tag_88\n      swap1\n      tag_89\n      jump\t// in\n    tag_88:\n      swap2\n      pop\n      pop\n        /* \"casino-ethereum/contracts/Casino.sol\":1886:1993  for (uint256 i = 0; i < players.length; i++) {... */\n      jump(tag_80)\n    tag_81:\n      pop\n        /* \"casino-ethereum/contracts/Casino.sol\":2009:2014  false */\n      0x00\n        /* \"casino-ethereum/contracts/Casino.sol\":2002:2014  return false */\n      swap1\n      pop\n        /* \"casino-ethereum/contracts/Casino.sol\":1571:2021  function checkPlayerExists(address player) public view returns (bool) {... */\n    tag_79:\n      swap2\n      swap1\n      pop\n      jump\t// out\n        /* \"casino-ethereum/contracts/Casino.sol\":886:930  mapping(address => Player) public playerInfo */\n    tag_36:\n      mstore(0x20, 0x06)\n      dup1\n      0x00\n      mstore\n      keccak256(0x00, 0x40)\n      0x00\n      swap2\n      pop\n      swap1\n      pop\n      dup1\n      0x00\n      add\n      sload\n      swap1\n      dup1\n      0x01\n      add\n      sload\n      swap1\n      pop\n      dup3\n      jump\t// out\n        /* \"casino-ethereum/contracts/Casino.sol\":124:151  address public accountOwner */\n    tag_41:\n      0x00\n      dup1\n      sload\n      swap1\n      0x0100\n      exp\n      swap1\n      div\n      0xffffffffffffffffffffffffffffffffffffffff\n      and\n      dup2\n      jump\t// out\n        /* \"casino-ethereum/contracts/Casino.sol\":3530:4828  function distributePrizes(uint256 numberWinner) public {... */\n    tag_48:\n        /* \"casino-ethereum/contracts/Casino.sol\":3595:3630  address payable[100] memory winners */\n      tag_91\n      tag_92\n      jump\t// in\n    tag_91:\n        /* \"casino-ethereum/contracts/Casino.sol\":3703:3716  uint256 count */\n      0x00\n        /* \"casino-ethereum/contracts/Casino.sol\":3762:3771  uint256 i */\n      dup1\n        /* \"casino-ethereum/contracts/Casino.sol\":3757:4218  for (uint256 i = 0; i < players.length; i++) {... */\n    tag_93:\n        /* \"casino-ethereum/contracts/Casino.sol\":3781:3788  players */\n      0x05\n        /* \"casino-ethereum/contracts/Casino.sol\":3781:3795  players.length */\n      dup1\n      sload\n      swap1\n      pop\n        /* \"casino-ethereum/contracts/Casino.sol\":3777:3778  i */\n      dup2\n        /* \"casino-ethereum/contracts/Casino.sol\":3777:3795  i < players.length */\n      lt\n        /* \"casino-ethereum/contracts/Casino.sol\":3757:4218  for (uint256 i = 0; i < players.length; i++) {... */\n      iszero\n      tag_94\n      jumpi\n        /* \"casino-ethereum/contracts/Casino.sol\":3858:3879  address playerAddress */\n      0x00\n        /* \"casino-ethereum/contracts/Casino.sol\":3882:3889  players */\n      0x05\n        /* \"casino-ethereum/contracts/Casino.sol\":3890:3891  i */\n      dup3\n        /* \"casino-ethereum/contracts/Casino.sol\":3882:3892  players[i] */\n      dup2\n      sload\n      dup2\n      lt\n      tag_96\n      jumpi\n      tag_97\n      tag_85\n      jump\t// in\n    tag_97:\n    tag_96:\n      swap1\n      0x00\n      mstore\n      keccak256(0x00, 0x20)\n      add\n      0x00\n      swap1\n      sload\n      swap1\n      0x0100\n      exp\n      swap1\n      div\n      0xffffffffffffffffffffffffffffffffffffffff\n      and\n        /* \"casino-ethereum/contracts/Casino.sol\":3858:3892  address playerAddress = players[i] */\n      swap1\n      pop\n        /* \"casino-ethereum/contracts/Casino.sol\":3954:3966  numberWinner */\n      dup5\n        /* \"casino-ethereum/contracts/Casino.sol\":3910:3920  playerInfo */\n      0x06\n        /* \"casino-ethereum/contracts/Casino.sol\":3910:3935  playerInfo[playerAddress] */\n      0x00\n        /* \"casino-ethereum/contracts/Casino.sol\":3921:3934  playerAddress */\n      dup4\n        /* \"casino-ethereum/contracts/Casino.sol\":3910:3935  playerInfo[playerAddress] */\n      0xffffffffffffffffffffffffffffffffffffffff\n      and\n      0xffffffffffffffffffffffffffffffffffffffff\n      and\n      dup2\n      mstore\n      0x20\n      add\n      swap1\n      dup2\n      mstore\n      0x20\n      add\n      0x00\n      keccak256\n        /* \"casino-ethereum/contracts/Casino.sol\":3910:3950  playerInfo[playerAddress].numberSelected */\n      0x01\n      add\n      sload\n        /* \"casino-ethereum/contracts/Casino.sol\":3910:3966  playerInfo[playerAddress].numberSelected == numberWinner */\n      sub\n        /* \"casino-ethereum/contracts/Casino.sol\":3906:4104  if (playerInfo[playerAddress].numberSelected == numberWinner) {... */\n      tag_99\n      jumpi\n        /* \"casino-ethereum/contracts/Casino.sol\":4050:4063  playerAddress */\n      dup1\n        /* \"casino-ethereum/contracts/Casino.sol\":4025:4032  winners */\n      dup5\n        /* \"casino-ethereum/contracts/Casino.sol\":4033:4038  count */\n      dup5\n        /* \"casino-ethereum/contracts/Casino.sol\":4025:4039  winners[count] */\n      0x64\n      dup2\n      lt\n      tag_100\n      jumpi\n      tag_101\n      tag_85\n      jump\t// in\n    tag_101:\n    tag_100:\n      0x20\n      mul\n      add\n        /* \"casino-ethereum/contracts/Casino.sol\":4025:4064  winners[count] = payable(playerAddress) */\n      swap1\n      0xffffffffffffffffffffffffffffffffffffffff\n      and\n      swap1\n      dup2\n      0xffffffffffffffffffffffffffffffffffffffff\n      and\n      dup2\n      mstore\n      pop\n      pop\n        /* \"casino-ethereum/contracts/Casino.sol\":4082:4089  count++ */\n      dup3\n      dup1\n      tag_102\n      swap1\n      tag_89\n      jump\t// in\n    tag_102:\n      swap4\n      pop\n      pop\n        /* \"casino-ethereum/contracts/Casino.sol\":3906:4104  if (playerInfo[playerAddress].numberSelected == numberWinner) {... */\n    tag_99:\n        /* \"casino-ethereum/contracts/Casino.sol\":4182:4192  playerInfo */\n      0x06\n        /* \"casino-ethereum/contracts/Casino.sol\":4182:4207  playerInfo[playerAddress] */\n      0x00\n        /* \"casino-ethereum/contracts/Casino.sol\":4193:4206  playerAddress */\n      dup3\n        /* \"casino-ethereum/contracts/Casino.sol\":4182:4207  playerInfo[playerAddress] */\n      0xffffffffffffffffffffffffffffffffffffffff\n      and\n      0xffffffffffffffffffffffffffffffffffffffff\n      and\n      dup2\n      mstore\n      0x20\n      add\n      swap1\n      dup2\n      mstore\n      0x20\n      add\n      0x00\n      keccak256\n      0x00\n        /* \"casino-ethereum/contracts/Casino.sol\":4175:4207  delete playerInfo[playerAddress] */\n      dup1\n      dup3\n      add\n      0x00\n      swap1\n      sstore\n      0x01\n      dup3\n      add\n      0x00\n      swap1\n      sstore\n      pop\n      pop\n        /* \"casino-ethereum/contracts/Casino.sol\":3802:4218  {... */\n      pop\n        /* \"casino-ethereum/contracts/Casino.sol\":3797:3800  i++ */\n      dup1\n      dup1\n      tag_103\n      swap1\n      tag_89\n      jump\t// in\n    tag_103:\n      swap2\n      pop\n      pop\n        /* \"casino-ethereum/contracts/Casino.sol\":3757:4218  for (uint256 i = 0; i < players.length; i++) {... */\n      jump(tag_93)\n    tag_94:\n      pop\n        /* \"casino-ethereum/contracts/Casino.sol\":4314:4321  players */\n      0x05\n      0x00\n        /* \"casino-ethereum/contracts/Casino.sol\":4307:4321  delete players */\n      tag_104\n      swap2\n      swap1\n      tag_105\n      jump\t// in\n    tag_104:\n        /* \"casino-ethereum/contracts/Casino.sol\":4463:4488  uint256 winnerEtherAmount */\n      0x00\n        /* \"casino-ethereum/contracts/Casino.sol\":4502:4516  winners.length */\n      0x64\n        /* \"casino-ethereum/contracts/Casino.sol\":4491:4499  totalBet */\n      sload(0x02)\n        /* \"casino-ethereum/contracts/Casino.sol\":4491:4516  totalBet / winners.length */\n      tag_106\n      swap2\n      swap1\n      tag_107\n      jump\t// in\n    tag_106:\n        /* \"casino-ethereum/contracts/Casino.sol\":4463:4516  uint256 winnerEtherAmount = totalBet / winners.length */\n      swap1\n      pop\n        /* \"casino-ethereum/contracts/Casino.sol\":4532:4541  uint256 j */\n      0x00\n        /* \"casino-ethereum/contracts/Casino.sol\":4527:4822  for (uint256 j = 0; j < count; j++) {... */\n    tag_108:\n        /* \"casino-ethereum/contracts/Casino.sol\":4551:4556  count */\n      dup3\n        /* \"casino-ethereum/contracts/Casino.sol\":4547:4548  j */\n      dup2\n        /* \"casino-ethereum/contracts/Casino.sol\":4547:4556  j < count */\n      lt\n        /* \"casino-ethereum/contracts/Casino.sol\":4527:4822  for (uint256 j = 0; j < count; j++) {... */\n      iszero\n      tag_109\n      jumpi\n        /* \"casino-ethereum/contracts/Casino.sol\":4603:4604  0 */\n      0x00\n        /* \"casino-ethereum/contracts/Casino.sol\":4581:4605  winners[j] != address(0) */\n      0xffffffffffffffffffffffffffffffffffffffff\n      and\n        /* \"casino-ethereum/contracts/Casino.sol\":4581:4588  winners */\n      dup5\n        /* \"casino-ethereum/contracts/Casino.sol\":4589:4590  j */\n      dup3\n        /* \"casino-ethereum/contracts/Casino.sol\":4581:4591  winners[j] */\n      0x64\n      dup2\n      lt\n      tag_111\n      jumpi\n      tag_112\n      tag_85\n      jump\t// in\n    tag_112:\n    tag_111:\n      0x20\n      mul\n      add\n      mload\n        /* \"casino-ethereum/contracts/Casino.sol\":4581:4605  winners[j] != address(0) */\n      0xffffffffffffffffffffffffffffffffffffffff\n      and\n      eq\n        /* \"casino-ethereum/contracts/Casino.sol\":4577:4811  if (winners[j] != address(0))... */\n      tag_113\n      jumpi\n        /* \"casino-ethereum/contracts/Casino.sol\":4773:4780  winners */\n      dup4\n        /* \"casino-ethereum/contracts/Casino.sol\":4781:4782  j */\n      dup2\n        /* \"casino-ethereum/contracts/Casino.sol\":4773:4783  winners[j] */\n      0x64\n      dup2\n      lt\n      tag_114\n      jumpi\n      tag_115\n      tag_85\n      jump\t// in\n    tag_115:\n    tag_114:\n      0x20\n      mul\n      add\n      mload\n        /* \"casino-ethereum/contracts/Casino.sol\":4773:4792  winners[j].transfer */\n      0xffffffffffffffffffffffffffffffffffffffff\n      and\n        /* \"casino-ethereum/contracts/Casino.sol\":4773:4811  winners[j].transfer(winnerEtherAmount) */\n      0x08fc\n        /* \"casino-ethereum/contracts/Casino.sol\":4793:4810  winnerEtherAmount */\n      dup4\n        /* \"casino-ethereum/contracts/Casino.sol\":4773:4811  winners[j].transfer(winnerEtherAmount) */\n      swap1\n      dup2\n      iszero\n      mul\n      swap1\n      mload(0x40)\n      0x00\n      mload(0x40)\n      dup1\n      dup4\n      sub\n      dup2\n      dup6\n      dup9\n      dup9\n      call\n      swap4\n      pop\n      pop\n      pop\n      pop\n      iszero\n      dup1\n      iszero\n      tag_117\n      jumpi\n      returndatasize\n      0x00\n      dup1\n      returndatacopy\n      revert(0x00, returndatasize)\n    tag_117:\n      pop\n        /* \"casino-ethereum/contracts/Casino.sol\":4577:4811  if (winners[j] != address(0))... */\n    tag_113:\n        /* \"casino-ethereum/contracts/Casino.sol\":4558:4561  j++ */\n      dup1\n      dup1\n      tag_118\n      swap1\n      tag_89\n      jump\t// in\n    tag_118:\n      swap2\n      pop\n      pop\n        /* \"casino-ethereum/contracts/Casino.sol\":4527:4822  for (uint256 j = 0; j < count; j++) {... */\n      jump(tag_108)\n    tag_109:\n      pop\n        /* \"casino-ethereum/contracts/Casino.sol\":3585:4828  {... */\n      pop\n      pop\n      pop\n        /* \"casino-ethereum/contracts/Casino.sol\":3530:4828  function distributePrizes(uint256 numberWinner) public {... */\n      pop\n      jump\t// out\n        /* \"casino-ethereum/contracts/Casino.sol\":2055:3087  function bet(uint256 numberSelected) public payable {... */\n    tag_51:\n        /* \"casino-ethereum/contracts/Casino.sol\":2299:2328  checkPlayerExists(msg.sender) */\n      tag_120\n        /* \"casino-ethereum/contracts/Casino.sol\":2317:2327  msg.sender */\n      caller\n        /* \"casino-ethereum/contracts/Casino.sol\":2299:2316  checkPlayerExists */\n      tag_30\n        /* \"casino-ethereum/contracts/Casino.sol\":2299:2328  checkPlayerExists(msg.sender) */\n      jump\t// in\n    tag_120:\n        /* \"casino-ethereum/contracts/Casino.sol\":2298:2328  !checkPlayerExists(msg.sender) */\n      iszero\n        /* \"casino-ethereum/contracts/Casino.sol\":2290:2329  require(!checkPlayerExists(msg.sender)) */\n      tag_121\n      jumpi\n      0x00\n      dup1\n      revert\n    tag_121:\n        /* \"casino-ethereum/contracts/Casino.sol\":2411:2412  1 */\n      0x01\n        /* \"casino-ethereum/contracts/Casino.sol\":2393:2407  numberSelected */\n      dup2\n        /* \"casino-ethereum/contracts/Casino.sol\":2393:2412  numberSelected >= 1 */\n      lt\n      iszero\n        /* \"casino-ethereum/contracts/Casino.sol\":2393:2436  numberSelected >= 1 && numberSelected <= 10 */\n      dup1\n      iszero\n      tag_122\n      jumpi\n      pop\n        /* \"casino-ethereum/contracts/Casino.sol\":2434:2436  10 */\n      0x0a\n        /* \"casino-ethereum/contracts/Casino.sol\":2416:2430  numberSelected */\n      dup2\n        /* \"casino-ethereum/contracts/Casino.sol\":2416:2436  numberSelected <= 10 */\n      gt\n      iszero\n        /* \"casino-ethereum/contracts/Casino.sol\":2393:2436  numberSelected >= 1 && numberSelected <= 10 */\n    tag_122:\n        /* \"casino-ethereum/contracts/Casino.sol\":2385:2437  require(numberSelected >= 1 && numberSelected <= 10) */\n      tag_123\n      jumpi\n      0x00\n      dup1\n      revert\n    tag_123:\n        /* \"casino-ethereum/contracts/Casino.sol\":2551:2561  minimumBet */\n      sload(0x01)\n        /* \"casino-ethereum/contracts/Casino.sol\":2538:2547  msg.value */\n      callvalue\n        /* \"casino-ethereum/contracts/Casino.sol\":2538:2561  msg.value >= minimumBet */\n      lt\n      iszero\n        /* \"casino-ethereum/contracts/Casino.sol\":2530:2562  require(msg.value >= minimumBet) */\n      tag_124\n      jumpi\n      0x00\n      dup1\n      revert\n    tag_124:\n        /* \"casino-ethereum/contracts/Casino.sol\":2735:2744  msg.value */\n      callvalue\n        /* \"casino-ethereum/contracts/Casino.sol\":2700:2710  playerInfo */\n      0x06\n        /* \"casino-ethereum/contracts/Casino.sol\":2700:2722  playerInfo[msg.sender] */\n      0x00\n        /* \"casino-ethereum/contracts/Casino.sol\":2711:2721  msg.sender */\n      caller\n        /* \"casino-ethereum/contracts/Casino.sol\":2700:2722  playerInfo[msg.sender] */\n      0xffffffffffffffffffffffffffffffffffffffff\n      and\n      0xffffffffffffffffffffffffffffffffffffffff\n      and\n      dup2\n      mstore\n      0x20\n      add\n      swap1\n      dup2\n      mstore\n      0x20\n      add\n      0x00\n      keccak256\n        /* \"casino-ethereum/contracts/Casino.sol\":2700:2732  playerInfo[msg.sender].amountBet */\n      0x00\n      add\n        /* \"casino-ethereum/contracts/Casino.sol\":2700:2744  playerInfo[msg.sender].amountBet = msg.value */\n      dup2\n      swap1\n      sstore\n      pop\n        /* \"casino-ethereum/contracts/Casino.sol\":2794:2808  numberSelected */\n      dup1\n        /* \"casino-ethereum/contracts/Casino.sol\":2754:2764  playerInfo */\n      0x06\n        /* \"casino-ethereum/contracts/Casino.sol\":2754:2776  playerInfo[msg.sender] */\n      0x00\n        /* \"casino-ethereum/contracts/Casino.sol\":2765:2775  msg.sender */\n      caller\n        /* \"casino-ethereum/contracts/Casino.sol\":2754:2776  playerInfo[msg.sender] */\n      0xffffffffffffffffffffffffffffffffffffffff\n      and\n      0xffffffffffffffffffffffffffffffffffffffff\n      and\n      dup2\n      mstore\n      0x20\n      add\n      swap1\n      dup2\n      mstore\n      0x20\n      add\n      0x00\n      keccak256\n        /* \"casino-ethereum/contracts/Casino.sol\":2754:2791  playerInfo[msg.sender].numberSelected */\n      0x01\n      add\n        /* \"casino-ethereum/contracts/Casino.sol\":2754:2808  playerInfo[msg.sender].numberSelected = numberSelected */\n      dup2\n      swap1\n      sstore\n      pop\n        /* \"casino-ethereum/contracts/Casino.sol\":2818:2830  numberOfBets */\n      0x03\n      0x00\n        /* \"casino-ethereum/contracts/Casino.sol\":2818:2832  numberOfBets++ */\n      dup2\n      sload\n      dup1\n      swap3\n      swap2\n      swap1\n      tag_125\n      swap1\n      tag_89\n      jump\t// in\n    tag_125:\n      swap2\n      swap1\n      pop\n      sstore\n      pop\n        /* \"casino-ethereum/contracts/Casino.sol\":2876:2883  players */\n      0x05\n        /* \"casino-ethereum/contracts/Casino.sol\":2889:2899  msg.sender */\n      caller\n        /* \"casino-ethereum/contracts/Casino.sol\":2876:2900  players.push(msg.sender) */\n      swap1\n      dup1\n      0x01\n      dup2\n      sload\n      add\n      dup1\n      dup3\n      sstore\n      dup1\n      swap2\n      pop\n      pop\n      0x01\n      swap1\n      sub\n      swap1\n      0x00\n      mstore\n      keccak256(0x00, 0x20)\n      add\n      0x00\n      swap1\n      swap2\n      swap1\n      swap2\n      swap1\n      swap2\n      0x0100\n      exp\n      dup2\n      sload\n      dup2\n      0xffffffffffffffffffffffffffffffffffffffff\n      mul\n      not\n      and\n      swap1\n      dup4\n      0xffffffffffffffffffffffffffffffffffffffff\n      and\n      mul\n      or\n      swap1\n      sstore\n      pop\n        /* \"casino-ethereum/contracts/Casino.sol\":2967:2976  msg.value */\n      callvalue\n        /* \"casino-ethereum/contracts/Casino.sol\":2955:2963  totalBet */\n      0x02\n      0x00\n        /* \"casino-ethereum/contracts/Casino.sol\":2955:2976  totalBet += msg.value */\n      dup3\n      dup3\n      sload\n      tag_127\n      swap2\n      swap1\n      tag_77\n      jump\t// in\n    tag_127:\n      swap3\n      pop\n      pop\n      dup2\n      swap1\n      sstore\n      pop\n        /* \"casino-ethereum/contracts/Casino.sol\":3041:3056  maxAmountOfBets */\n      sload(0x04)\n        /* \"casino-ethereum/contracts/Casino.sol\":3025:3037  numberOfBets */\n      sload(0x03)\n        /* \"casino-ethereum/contracts/Casino.sol\":3025:3056  numberOfBets >= maxAmountOfBets */\n      lt\n        /* \"casino-ethereum/contracts/Casino.sol\":3021:3080  if (numberOfBets >= maxAmountOfBets) generateNumberWinner() */\n      tag_128\n      jumpi\n        /* \"casino-ethereum/contracts/Casino.sol\":3058:3080  generateNumberWinner() */\n      tag_129\n        /* \"casino-ethereum/contracts/Casino.sol\":3058:3078  generateNumberWinner */\n      tag_20\n        /* \"casino-ethereum/contracts/Casino.sol\":3058:3080  generateNumberWinner() */\n      jump\t// in\n    tag_129:\n        /* \"casino-ethereum/contracts/Casino.sol\":3021:3080  if (numberOfBets >= maxAmountOfBets) generateNumberWinner() */\n    tag_128:\n        /* \"casino-ethereum/contracts/Casino.sol\":2055:3087  function bet(uint256 numberSelected) public payable {... */\n      pop\n      jump\t// out\n        /* \"casino-ethereum/contracts/Casino.sol\":198:223  uint256 public minimumBet */\n    tag_54:\n      sload(0x01)\n      dup2\n      jump\t// out\n        /* \"casino-ethereum/contracts/Casino.sol\":1179:1565  function kill(address ownerAddress) public {... */\n    tag_59:\n        /* \"casino-ethereum/contracts/Casino.sol\":1470:1480  msg.sender */\n      caller\n        /* \"casino-ethereum/contracts/Casino.sol\":1454:1480  ownerAddress == msg.sender */\n      0xffffffffffffffffffffffffffffffffffffffff\n      and\n        /* \"casino-ethereum/contracts/Casino.sol\":1454:1466  ownerAddress */\n      dup2\n        /* \"casino-ethereum/contracts/Casino.sol\":1454:1480  ownerAddress == msg.sender */\n      0xffffffffffffffffffffffffffffffffffffffff\n      and\n      eq\n        /* \"casino-ethereum/contracts/Casino.sol\":1446:1513  require(ownerAddress == msg.sender, \"only the owner can call this\") */\n      tag_131\n      jumpi\n      mload(0x40)\n      0x08c379a000000000000000000000000000000000000000000000000000000000\n      dup2\n      mstore\n      0x04\n      add\n      tag_132\n      swap1\n      tag_133\n      jump\t// in\n    tag_132:\n      mload(0x40)\n      dup1\n      swap2\n      sub\n      swap1\n      revert\n    tag_131:\n        /* \"casino-ethereum/contracts/Casino.sol\":1544:1556  ownerAddress */\n      dup1\n        /* \"casino-ethereum/contracts/Casino.sol\":1523:1558  selfdestruct(payable(ownerAddress)) */\n      0xffffffffffffffffffffffffffffffffffffffff\n      and\n      selfdestruct\n        /* \"casino-ethereum/contracts/Casino.sol\":382:418  uint256 public maxAmountOfBets = 100 */\n    tag_62:\n      sload(0x04)\n      dup2\n      jump\t// out\n        /* \"casino-ethereum/contracts/Casino.sol\":451:475  address[] public players */\n    tag_67:\n      0x05\n      dup2\n      dup2\n      sload\n      dup2\n      lt\n      tag_134\n      jumpi\n      0x00\n      dup1\n      revert\n    tag_134:\n      swap1\n      0x00\n      mstore\n      keccak256(0x00, 0x20)\n      add\n      0x00\n      swap2\n      pop\n      sload\n      swap1\n      0x0100\n      exp\n      swap1\n      div\n      0xffffffffffffffffffffffffffffffffffffffff\n      and\n      dup2\n      jump\t// out\n        /* \"casino-ethereum/contracts/Casino.sol\":255:278  uint256 public totalBet */\n    tag_71:\n      sload(0x02)\n      dup2\n      jump\t// out\n    tag_92:\n      mload(0x40)\n      dup1\n      0x0c80\n      add\n      0x40\n      mstore\n      dup1\n      0x64\n      swap1\n      0x20\n      dup3\n      mul\n      dup1\n      calldatasize\n      dup4\n      calldatacopy\n      dup1\n      dup3\n      add\n      swap2\n      pop\n      pop\n      swap1\n      pop\n      pop\n      swap1\n      jump\t// out\n    tag_105:\n      pop\n      dup1\n      sload\n      0x00\n      dup3\n      sstore\n      swap1\n      0x00\n      mstore\n      keccak256(0x00, 0x20)\n      swap1\n      dup2\n      add\n      swap1\n      tag_137\n      swap2\n      swap1\n      tag_138\n      jump\t// in\n    tag_137:\n      pop\n      jump\t// out\n    tag_138:\n    tag_139:\n      dup1\n      dup3\n      gt\n      iszero\n      tag_140\n      jumpi\n      0x00\n      dup2\n      0x00\n      swap1\n      sstore\n      pop\n      0x01\n      add\n      jump(tag_139)\n    tag_140:\n      pop\n      swap1\n      jump\t// out\n        /* \"#utility.yul\":7:84   */\n    tag_141:\n        /* \"#utility.yul\":44:51   */\n      0x00\n        /* \"#utility.yul\":73:78   */\n      dup2\n        /* \"#utility.yul\":62:78   */\n      swap1\n      pop\n        /* \"#utility.yul\":7:84   */\n      swap2\n      swap1\n      pop\n      jump\t// out\n        /* \"#utility.yul\":90:208   */\n    tag_142:\n        /* \"#utility.yul\":177:201   */\n      tag_163\n        /* \"#utility.yul\":195:200   */\n      dup2\n        /* \"#utility.yul\":177:201   */\n      tag_141\n      jump\t// in\n    tag_163:\n        /* \"#utility.yul\":172:175   */\n      dup3\n        /* \"#utility.yul\":165:202   */\n      mstore\n        /* \"#utility.yul\":90:208   */\n      pop\n      pop\n      jump\t// out\n        /* \"#utility.yul\":214:436   */\n    tag_25:\n        /* \"#utility.yul\":307:311   */\n      0x00\n        /* \"#utility.yul\":345:347   */\n      0x20\n        /* \"#utility.yul\":334:343   */\n      dup3\n        /* \"#utility.yul\":330:348   */\n      add\n        /* \"#utility.yul\":322:348   */\n      swap1\n      pop\n        /* \"#utility.yul\":358:429   */\n      tag_165\n        /* \"#utility.yul\":426:427   */\n      0x00\n        /* \"#utility.yul\":415:424   */\n      dup4\n        /* \"#utility.yul\":411:428   */\n      add\n        /* \"#utility.yul\":402:408   */\n      dup5\n        /* \"#utility.yul\":358:429   */\n      tag_142\n      jump\t// in\n    tag_165:\n        /* \"#utility.yul\":214:436   */\n      swap3\n      swap2\n      pop\n      pop\n      jump\t// out\n        /* \"#utility.yul\":523:640   */\n    tag_144:\n        /* \"#utility.yul\":632:633   */\n      0x00\n        /* \"#utility.yul\":629:630   */\n      dup1\n        /* \"#utility.yul\":622:634   */\n      revert\n        /* \"#utility.yul\":769:895   */\n    tag_146:\n        /* \"#utility.yul\":806:813   */\n      0x00\n        /* \"#utility.yul\":846:888   */\n      0xffffffffffffffffffffffffffffffffffffffff\n        /* \"#utility.yul\":839:844   */\n      dup3\n        /* \"#utility.yul\":835:889   */\n      and\n        /* \"#utility.yul\":824:889   */\n      swap1\n      pop\n        /* \"#utility.yul\":769:895   */\n      swap2\n      swap1\n      pop\n      jump\t// out\n        /* \"#utility.yul\":901:997   */\n    tag_147:\n        /* \"#utility.yul\":938:945   */\n      0x00\n        /* \"#utility.yul\":967:991   */\n      tag_171\n        /* \"#utility.yul\":985:990   */\n      dup3\n        /* \"#utility.yul\":967:991   */\n      tag_146\n      jump\t// in\n    tag_171:\n        /* \"#utility.yul\":956:991   */\n      swap1\n      pop\n        /* \"#utility.yul\":901:997   */\n      swap2\n      swap1\n      pop\n      jump\t// out\n        /* \"#utility.yul\":1003:1125   */\n    tag_148:\n        /* \"#utility.yul\":1076:1100   */\n      tag_173\n        /* \"#utility.yul\":1094:1099   */\n      dup2\n        /* \"#utility.yul\":1076:1100   */\n      tag_147\n      jump\t// in\n    tag_173:\n        /* \"#utility.yul\":1069:1074   */\n      dup2\n        /* \"#utility.yul\":1066:1101   */\n      eq\n        /* \"#utility.yul\":1056:1119   */\n      tag_174\n      jumpi\n        /* \"#utility.yul\":1115:1116   */\n      0x00\n        /* \"#utility.yul\":1112:1113   */\n      dup1\n        /* \"#utility.yul\":1105:1117   */\n      revert\n        /* \"#utility.yul\":1056:1119   */\n    tag_174:\n        /* \"#utility.yul\":1003:1125   */\n      pop\n      jump\t// out\n        /* \"#utility.yul\":1131:1270   */\n    tag_149:\n        /* \"#utility.yul\":1177:1182   */\n      0x00\n        /* \"#utility.yul\":1215:1221   */\n      dup2\n        /* \"#utility.yul\":1202:1222   */\n      calldataload\n        /* \"#utility.yul\":1193:1222   */\n      swap1\n      pop\n        /* \"#utility.yul\":1231:1264   */\n      tag_176\n        /* \"#utility.yul\":1258:1263   */\n      dup2\n        /* \"#utility.yul\":1231:1264   */\n      tag_148\n      jump\t// in\n    tag_176:\n        /* \"#utility.yul\":1131:1270   */\n      swap3\n      swap2\n      pop\n      pop\n      jump\t// out\n        /* \"#utility.yul\":1276:1605   */\n    tag_29:\n        /* \"#utility.yul\":1335:1341   */\n      0x00\n        /* \"#utility.yul\":1384:1386   */\n      0x20\n        /* \"#utility.yul\":1372:1381   */\n      dup3\n        /* \"#utility.yul\":1363:1370   */\n      dup5\n        /* \"#utility.yul\":1359:1382   */\n      sub\n        /* \"#utility.yul\":1355:1387   */\n      slt\n        /* \"#utility.yul\":1352:1471   */\n      iszero\n      tag_178\n      jumpi\n        /* \"#utility.yul\":1390:1469   */\n      tag_179\n      tag_144\n      jump\t// in\n    tag_179:\n        /* \"#utility.yul\":1352:1471   */\n    tag_178:\n        /* \"#utility.yul\":1510:1511   */\n      0x00\n        /* \"#utility.yul\":1535:1588   */\n      tag_180\n        /* \"#utility.yul\":1580:1587   */\n      dup5\n        /* \"#utility.yul\":1571:1577   */\n      dup3\n        /* \"#utility.yul\":1560:1569   */\n      dup6\n        /* \"#utility.yul\":1556:1578   */\n      add\n        /* \"#utility.yul\":1535:1588   */\n      tag_149\n      jump\t// in\n    tag_180:\n        /* \"#utility.yul\":1525:1588   */\n      swap2\n      pop\n        /* \"#utility.yul\":1481:1598   */\n      pop\n        /* \"#utility.yul\":1276:1605   */\n      swap3\n      swap2\n      pop\n      pop\n      jump\t// out\n        /* \"#utility.yul\":1611:1701   */\n    tag_150:\n        /* \"#utility.yul\":1645:1652   */\n      0x00\n        /* \"#utility.yul\":1688:1693   */\n      dup2\n        /* \"#utility.yul\":1681:1694   */\n      iszero\n        /* \"#utility.yul\":1674:1695   */\n      iszero\n        /* \"#utility.yul\":1663:1695   */\n      swap1\n      pop\n        /* \"#utility.yul\":1611:1701   */\n      swap2\n      swap1\n      pop\n      jump\t// out\n        /* \"#utility.yul\":1707:1816   */\n    tag_151:\n        /* \"#utility.yul\":1788:1809   */\n      tag_183\n        /* \"#utility.yul\":1803:1808   */\n      dup2\n        /* \"#utility.yul\":1788:1809   */\n      tag_150\n      jump\t// in\n    tag_183:\n        /* \"#utility.yul\":1783:1786   */\n      dup3\n        /* \"#utility.yul\":1776:1810   */\n      mstore\n        /* \"#utility.yul\":1707:1816   */\n      pop\n      pop\n      jump\t// out\n        /* \"#utility.yul\":1822:2032   */\n    tag_32:\n        /* \"#utility.yul\":1909:1913   */\n      0x00\n        /* \"#utility.yul\":1947:1949   */\n      0x20\n        /* \"#utility.yul\":1936:1945   */\n      dup3\n        /* \"#utility.yul\":1932:1950   */\n      add\n        /* \"#utility.yul\":1924:1950   */\n      swap1\n      pop\n        /* \"#utility.yul\":1960:2025   */\n      tag_185\n        /* \"#utility.yul\":2022:2023   */\n      0x00\n        /* \"#utility.yul\":2011:2020   */\n      dup4\n        /* \"#utility.yul\":2007:2024   */\n      add\n        /* \"#utility.yul\":1998:2004   */\n      dup5\n        /* \"#utility.yul\":1960:2025   */\n      tag_151\n      jump\t// in\n    tag_185:\n        /* \"#utility.yul\":1822:2032   */\n      swap3\n      swap2\n      pop\n      pop\n      jump\t// out\n        /* \"#utility.yul\":2038:2370   */\n    tag_38:\n        /* \"#utility.yul\":2159:2163   */\n      0x00\n        /* \"#utility.yul\":2197:2199   */\n      0x40\n        /* \"#utility.yul\":2186:2195   */\n      dup3\n        /* \"#utility.yul\":2182:2200   */\n      add\n        /* \"#utility.yul\":2174:2200   */\n      swap1\n      pop\n        /* \"#utility.yul\":2210:2281   */\n      tag_187\n        /* \"#utility.yul\":2278:2279   */\n      0x00\n        /* \"#utility.yul\":2267:2276   */\n      dup4\n        /* \"#utility.yul\":2263:2280   */\n      add\n        /* \"#utility.yul\":2254:2260   */\n      dup6\n        /* \"#utility.yul\":2210:2281   */\n      tag_142\n      jump\t// in\n    tag_187:\n        /* \"#utility.yul\":2291:2363   */\n      tag_188\n        /* \"#utility.yul\":2359:2361   */\n      0x20\n        /* \"#utility.yul\":2348:2357   */\n      dup4\n        /* \"#utility.yul\":2344:2362   */\n      add\n        /* \"#utility.yul\":2335:2341   */\n      dup5\n        /* \"#utility.yul\":2291:2363   */\n      tag_142\n      jump\t// in\n    tag_188:\n        /* \"#utility.yul\":2038:2370   */\n      swap4\n      swap3\n      pop\n      pop\n      pop\n      jump\t// out\n        /* \"#utility.yul\":2376:2494   */\n    tag_152:\n        /* \"#utility.yul\":2463:2487   */\n      tag_190\n        /* \"#utility.yul\":2481:2486   */\n      dup2\n        /* \"#utility.yul\":2463:2487   */\n      tag_147\n      jump\t// in\n    tag_190:\n        /* \"#utility.yul\":2458:2461   */\n      dup3\n        /* \"#utility.yul\":2451:2488   */\n      mstore\n        /* \"#utility.yul\":2376:2494   */\n      pop\n      pop\n      jump\t// out\n        /* \"#utility.yul\":2500:2722   */\n    tag_43:\n        /* \"#utility.yul\":2593:2597   */\n      0x00\n        /* \"#utility.yul\":2631:2633   */\n      0x20\n        /* \"#utility.yul\":2620:2629   */\n      dup3\n        /* \"#utility.yul\":2616:2634   */\n      add\n        /* \"#utility.yul\":2608:2634   */\n      swap1\n      pop\n        /* \"#utility.yul\":2644:2715   */\n      tag_192\n        /* \"#utility.yul\":2712:2713   */\n      0x00\n        /* \"#utility.yul\":2701:2710   */\n      dup4\n        /* \"#utility.yul\":2697:2714   */\n      add\n        /* \"#utility.yul\":2688:2694   */\n      dup5\n        /* \"#utility.yul\":2644:2715   */\n      tag_152\n      jump\t// in\n    tag_192:\n        /* \"#utility.yul\":2500:2722   */\n      swap3\n      swap2\n      pop\n      pop\n      jump\t// out\n        /* \"#utility.yul\":2728:2850   */\n    tag_153:\n        /* \"#utility.yul\":2801:2825   */\n      tag_194\n        /* \"#utility.yul\":2819:2824   */\n      dup2\n        /* \"#utility.yul\":2801:2825   */\n      tag_141\n      jump\t// in\n    tag_194:\n        /* \"#utility.yul\":2794:2799   */\n      dup2\n        /* \"#utility.yul\":2791:2826   */\n      eq\n        /* \"#utility.yul\":2781:2844   */\n      tag_195\n      jumpi\n        /* \"#utility.yul\":2840:2841   */\n      0x00\n        /* \"#utility.yul\":2837:2838   */\n      dup1\n        /* \"#utility.yul\":2830:2842   */\n      revert\n        /* \"#utility.yul\":2781:2844   */\n    tag_195:\n        /* \"#utility.yul\":2728:2850   */\n      pop\n      jump\t// out\n        /* \"#utility.yul\":2856:2995   */\n    tag_154:\n        /* \"#utility.yul\":2902:2907   */\n      0x00\n        /* \"#utility.yul\":2940:2946   */\n      dup2\n        /* \"#utility.yul\":2927:2947   */\n      calldataload\n        /* \"#utility.yul\":2918:2947   */\n      swap1\n      pop\n        /* \"#utility.yul\":2956:2989   */\n      tag_197\n        /* \"#utility.yul\":2983:2988   */\n      dup2\n        /* \"#utility.yul\":2956:2989   */\n      tag_153\n      jump\t// in\n    tag_197:\n        /* \"#utility.yul\":2856:2995   */\n      swap3\n      swap2\n      pop\n      pop\n      jump\t// out\n        /* \"#utility.yul\":3001:3330   */\n    tag_47:\n        /* \"#utility.yul\":3060:3066   */\n      0x00\n        /* \"#utility.yul\":3109:3111   */\n      0x20\n        /* \"#utility.yul\":3097:3106   */\n      dup3\n        /* \"#utility.yul\":3088:3095   */\n      dup5\n        /* \"#utility.yul\":3084:3107   */\n      sub\n        /* \"#utility.yul\":3080:3112   */\n      slt\n        /* \"#utility.yul\":3077:3196   */\n      iszero\n      tag_199\n      jumpi\n        /* \"#utility.yul\":3115:3194   */\n      tag_200\n      tag_144\n      jump\t// in\n    tag_200:\n        /* \"#utility.yul\":3077:3196   */\n    tag_199:\n        /* \"#utility.yul\":3235:3236   */\n      0x00\n        /* \"#utility.yul\":3260:3313   */\n      tag_201\n        /* \"#utility.yul\":3305:3312   */\n      dup5\n        /* \"#utility.yul\":3296:3302   */\n      dup3\n        /* \"#utility.yul\":3285:3294   */\n      dup6\n        /* \"#utility.yul\":3281:3303   */\n      add\n        /* \"#utility.yul\":3260:3313   */\n      tag_154\n      jump\t// in\n    tag_201:\n        /* \"#utility.yul\":3250:3313   */\n      swap2\n      pop\n        /* \"#utility.yul\":3206:3323   */\n      pop\n        /* \"#utility.yul\":3001:3330   */\n      swap3\n      swap2\n      pop\n      pop\n      jump\t// out\n        /* \"#utility.yul\":3336:3516   */\n    tag_155:\n        /* \"#utility.yul\":3384:3461   */\n      0x4e487b7100000000000000000000000000000000000000000000000000000000\n        /* \"#utility.yul\":3381:3382   */\n      0x00\n        /* \"#utility.yul\":3374:3462   */\n      mstore\n        /* \"#utility.yul\":3481:3485   */\n      0x12\n        /* \"#utility.yul\":3478:3479   */\n      0x04\n        /* \"#utility.yul\":3471:3486   */\n      mstore\n        /* \"#utility.yul\":3505:3509   */\n      0x24\n        /* \"#utility.yul\":3502:3503   */\n      0x00\n        /* \"#utility.yul\":3495:3510   */\n      revert\n        /* \"#utility.yul\":3522:3698   */\n    tag_75:\n        /* \"#utility.yul\":3554:3555   */\n      0x00\n        /* \"#utility.yul\":3571:3591   */\n      tag_204\n        /* \"#utility.yul\":3589:3590   */\n      dup3\n        /* \"#utility.yul\":3571:3591   */\n      tag_141\n      jump\t// in\n    tag_204:\n        /* \"#utility.yul\":3566:3591   */\n      swap2\n      pop\n        /* \"#utility.yul\":3605:3625   */\n      tag_205\n        /* \"#utility.yul\":3623:3624   */\n      dup4\n        /* \"#utility.yul\":3605:3625   */\n      tag_141\n      jump\t// in\n    tag_205:\n        /* \"#utility.yul\":3600:3625   */\n      swap3\n      pop\n        /* \"#utility.yul\":3644:3645   */\n      dup3\n        /* \"#utility.yul\":3634:3669   */\n      tag_206\n      jumpi\n        /* \"#utility.yul\":3649:3667   */\n      tag_207\n      tag_155\n      jump\t// in\n    tag_207:\n        /* \"#utility.yul\":3634:3669   */\n    tag_206:\n        /* \"#utility.yul\":3690:3691   */\n      dup3\n        /* \"#utility.yul\":3687:3688   */\n      dup3\n        /* \"#utility.yul\":3683:3692   */\n      mod\n        /* \"#utility.yul\":3678:3692   */\n      swap1\n      pop\n        /* \"#utility.yul\":3522:3698   */\n      swap3\n      swap2\n      pop\n      pop\n      jump\t// out\n        /* \"#utility.yul\":3704:3884   */\n    tag_156:\n        /* \"#utility.yul\":3752:3829   */\n      0x4e487b7100000000000000000000000000000000000000000000000000000000\n        /* \"#utility.yul\":3749:3750   */\n      0x00\n        /* \"#utility.yul\":3742:3830   */\n      mstore\n        /* \"#utility.yul\":3849:3853   */\n      0x11\n        /* \"#utility.yul\":3846:3847   */\n      0x04\n        /* \"#utility.yul\":3839:3854   */\n      mstore\n        /* \"#utility.yul\":3873:3877   */\n      0x24\n        /* \"#utility.yul\":3870:3871   */\n      0x00\n        /* \"#utility.yul\":3863:3878   */\n      revert\n        /* \"#utility.yul\":3890:4081   */\n    tag_77:\n        /* \"#utility.yul\":3930:3933   */\n      0x00\n        /* \"#utility.yul\":3949:3969   */\n      tag_210\n        /* \"#utility.yul\":3967:3968   */\n      dup3\n        /* \"#utility.yul\":3949:3969   */\n      tag_141\n      jump\t// in\n    tag_210:\n        /* \"#utility.yul\":3944:3969   */\n      swap2\n      pop\n        /* \"#utility.yul\":3983:4003   */\n      tag_211\n        /* \"#utility.yul\":4001:4002   */\n      dup4\n        /* \"#utility.yul\":3983:4003   */\n      tag_141\n      jump\t// in\n    tag_211:\n        /* \"#utility.yul\":3978:4003   */\n      swap3\n      pop\n        /* \"#utility.yul\":4026:4027   */\n      dup3\n        /* \"#utility.yul\":4023:4024   */\n      dup3\n        /* \"#utility.yul\":4019:4028   */\n      add\n        /* \"#utility.yul\":4012:4028   */\n      swap1\n      pop\n        /* \"#utility.yul\":4047:4050   */\n      dup1\n        /* \"#utility.yul\":4044:4045   */\n      dup3\n        /* \"#utility.yul\":4041:4051   */\n      gt\n        /* \"#utility.yul\":4038:4074   */\n      iszero\n      tag_212\n      jumpi\n        /* \"#utility.yul\":4054:4072   */\n      tag_213\n      tag_156\n      jump\t// in\n    tag_213:\n        /* \"#utility.yul\":4038:4074   */\n    tag_212:\n        /* \"#utility.yul\":3890:4081   */\n      swap3\n      swap2\n      pop\n      pop\n      jump\t// out\n        /* \"#utility.yul\":4087:4267   */\n    tag_85:\n        /* \"#utility.yul\":4135:4212   */\n      0x4e487b7100000000000000000000000000000000000000000000000000000000\n        /* \"#utility.yul\":4132:4133   */\n      0x00\n        /* \"#utility.yul\":4125:4213   */\n      mstore\n        /* \"#utility.yul\":4232:4236   */\n      0x32\n        /* \"#utility.yul\":4229:4230   */\n      0x04\n        /* \"#utility.yul\":4222:4237   */\n      mstore\n        /* \"#utility.yul\":4256:4260   */\n      0x24\n        /* \"#utility.yul\":4253:4254   */\n      0x00\n        /* \"#utility.yul\":4246:4261   */\n      revert\n        /* \"#utility.yul\":4273:4506   */\n    tag_89:\n        /* \"#utility.yul\":4312:4315   */\n      0x00\n        /* \"#utility.yul\":4335:4359   */\n      tag_216\n        /* \"#utility.yul\":4353:4358   */\n      dup3\n        /* \"#utility.yul\":4335:4359   */\n      tag_141\n      jump\t// in\n    tag_216:\n        /* \"#utility.yul\":4326:4359   */\n      swap2\n      pop\n        /* \"#utility.yul\":4381:4447   */\n      0xffffffffffffffffffffffffffffffffffffffffffffffffffffffffffffffff\n        /* \"#utility.yul\":4374:4379   */\n      dup3\n        /* \"#utility.yul\":4371:4448   */\n      sub\n        /* \"#utility.yul\":4368:4471   */\n      tag_217\n      jumpi\n        /* \"#utility.yul\":4451:4469   */\n      tag_218\n      tag_156\n      jump\t// in\n    tag_218:\n        /* \"#utility.yul\":4368:4471   */\n    tag_217:\n        /* \"#utility.yul\":4498:4499   */\n      0x01\n        /* \"#utility.yul\":4491:4496   */\n      dup3\n        /* \"#utility.yul\":4487:4500   */\n      add\n        /* \"#utility.yul\":4480:4500   */\n      swap1\n      pop\n        /* \"#utility.yul\":4273:4506   */\n      swap2\n      swap1\n      pop\n      jump\t// out\n        /* \"#utility.yul\":4512:4697   */\n    tag_107:\n        /* \"#utility.yul\":4552:4553   */\n      0x00\n        /* \"#utility.yul\":4569:4589   */\n      tag_220\n        /* \"#utility.yul\":4587:4588   */\n      dup3\n        /* \"#utility.yul\":4569:4589   */\n      tag_141\n      jump\t// in\n    tag_220:\n        /* \"#utility.yul\":4564:4589   */\n      swap2\n      pop\n        /* \"#utility.yul\":4603:4623   */\n      tag_221\n        /* \"#utility.yul\":4621:4622   */\n      dup4\n        /* \"#utility.yul\":4603:4623   */\n      tag_141\n      jump\t// in\n    tag_221:\n        /* \"#utility.yul\":4598:4623   */\n      swap3\n      pop\n        /* \"#utility.yul\":4642:4643   */\n      dup3\n        /* \"#utility.yul\":4632:4667   */\n      tag_222\n      jumpi\n        /* \"#utility.yul\":4647:4665   */\n      tag_223\n      tag_155\n      jump\t// in\n    tag_223:\n        /* \"#utility.yul\":4632:4667   */\n    tag_222:\n        /* \"#utility.yul\":4689:4690   */\n      dup3\n        /* \"#utility.yul\":4686:4687   */\n      dup3\n        /* \"#utility.yul\":4682:4691   */\n      div\n        /* \"#utility.yul\":4677:4691   */\n      swap1\n      pop\n        /* \"#utility.yul\":4512:4697   */\n      swap3\n      swap2\n      pop\n      pop\n      jump\t// out\n        /* \"#utility.yul\":4703:4872   */\n    tag_157:\n        /* \"#utility.yul\":4787:4798   */\n      0x00\n        /* \"#utility.yul\":4821:4827   */\n      dup3\n        /* \"#utility.yul\":4816:4819   */\n      dup3\n        /* \"#utility.yul\":4809:4828   */\n      mstore\n        /* \"#utility.yul\":4861:4865   */\n      0x20\n        /* \"#utility.yul\":4856:4859   */\n      dup3\n        /* \"#utility.yul\":4852:4866   */\n      add\n        /* \"#utility.yul\":4837:4866   */\n      swap1\n      pop\n        /* \"#utility.yul\":4703:4872   */\n      swap3\n      swap2\n      pop\n      pop\n      jump\t// out\n        /* \"#utility.yul\":4878:5056   */\n    tag_158:\n        /* \"#utility.yul\":5018:5048   */\n      0x6f6e6c7920746865206f776e65722063616e2063616c6c207468697300000000\n        /* \"#utility.yul\":5014:5015   */\n      0x00\n        /* \"#utility.yul\":5006:5012   */\n      dup3\n        /* \"#utility.yul\":5002:5016   */\n      add\n        /* \"#utility.yul\":4995:5049   */\n      mstore\n        /* \"#utility.yul\":4878:5056   */\n      pop\n      jump\t// out\n        /* \"#utility.yul\":5062:5428   */\n    tag_159:\n        /* \"#utility.yul\":5204:5207   */\n      0x00\n        /* \"#utility.yul\":5225:5292   */\n      tag_227\n        /* \"#utility.yul\":5289:5291   */\n      0x1c\n        /* \"#utility.yul\":5284:5287   */\n      dup4\n        /* \"#utility.yul\":5225:5292   */\n      tag_157\n      jump\t// in\n    tag_227:\n        /* \"#utility.yul\":5218:5292   */\n      swap2\n      pop\n        /* \"#utility.yul\":5301:5394   */\n      tag_228\n        /* \"#utility.yul\":5390:5393   */\n      dup3\n        /* \"#utility.yul\":5301:5394   */\n      tag_158\n      jump\t// in\n    tag_228:\n        /* \"#utility.yul\":5419:5421   */\n      0x20\n        /* \"#utility.yul\":5414:5417   */\n      dup3\n        /* \"#utility.yul\":5410:5422   */\n      add\n        /* \"#utility.yul\":5403:5422   */\n      swap1\n      pop\n        /* \"#utility.yul\":5062:5428   */\n      swap2\n      swap1\n      pop\n      jump\t// out\n        /* \"#utility.yul\":5434:5853   */\n    tag_133:\n        /* \"#utility.yul\":5600:5604   */\n      0x00\n        /* \"#utility.yul\":5638:5640   */\n      0x20\n        /* \"#utility.yul\":5627:5636   */\n      dup3\n        /* \"#utility.yul\":5623:5641   */\n      add\n        /* \"#utility.yul\":5615:5641   */\n      swap1\n      pop\n        /* \"#utility.yul\":5687:5696   */\n      dup2\n        /* \"#utility.yul\":5681:5685   */\n      dup2\n        /* \"#utility.yul\":5677:5697   */\n      sub\n        /* \"#utility.yul\":5673:5674   */\n      0x00\n        /* \"#utility.yul\":5662:5671   */\n      dup4\n        /* \"#utility.yul\":5658:5675   */\n      add\n        /* \"#utility.yul\":5651:5698   */\n      mstore\n        /* \"#utility.yul\":5715:5846   */\n      tag_230\n        /* \"#utility.yul\":5841:5845   */\n      dup2\n        /* \"#utility.yul\":5715:5846   */\n      tag_159\n      jump\t// in\n    tag_230:\n        /* \"#utility.yul\":5707:5846   */\n      swap1\n      pop\n        /* \"#utility.yul\":5434:5853   */\n      swap2\n      swap1\n      pop\n      jump\t// out\n\n    auxdata: 0xa264697066735822122068ca0beb45f19d4a281551565e72a8275ba3fb647ce2686a70276bf23b75be7864736f6c63430008110033\n}\n",
				"bytecode": {
					"linkReferences": {},
					"object": "6080604052606460045534801561001557600080fd5b50604051610dbd380380610dbd833981810160405281019061003791906100c8565b336000806101000a81548173ffffffffffffffffffffffffffffffffffffffff021916908373ffffffffffffffffffffffffffffffffffffffff1602179055506000811461008757806001819055505b506100f5565b600080fd5b6000819050919050565b6100a581610092565b81146100b057600080fd5b50565b6000815190506100c28161009c565b92915050565b6000602082840312156100de576100dd61008d565b5b60006100ec848285016100b3565b91505092915050565b610cb9806101046000396000f3fe6080604052600436106100ab5760003560e01c80637365870b116100645780637365870b146101c8578063c38a8afd146101e4578063cbf0b0c01461020f578063e08a96cd14610238578063f71d96cb14610263578063fe5e1853146102a0576100b2565b80630a50e361146100b75780632ca8c6d3146100ce5780634081d916146100f95780634b11469114610136578063674ddb53146101745780636ca3fc3b1461019f576100b2565b366100b257005b600080fd5b3480156100c357600080fd5b506100cc6102cb565b005b3480156100da57600080fd5b506100e36102f4565b6040516100f0919061090e565b60405180910390f35b34801561010557600080fd5b50610120600480360381019061011b919061098c565b6102fa565b60405161012d91906109d4565b60405180910390f35b34801561014257600080fd5b5061015d6004803603810190610158919061098c565b6103a8565b60405161016b9291906109ef565b60405180910390f35b34801561018057600080fd5b506101896103cc565b6040516101969190610a27565b60405180910390f35b3480156101ab57600080fd5b506101c660048036038101906101c19190610a6e565b6103f0565b005b6101e260048036038101906101dd9190610a6e565b610646565b005b3480156101f057600080fd5b506101f96107bc565b604051610206919061090e565b60405180910390f35b34801561021b57600080fd5b506102366004803603810190610231919061098c565b6107c2565b005b34801561024457600080fd5b5061024d610849565b60405161025a919061090e565b60405180910390f35b34801561026f57600080fd5b5061028a60048036038101906102859190610a6e565b61084f565b6040516102979190610a27565b60405180910390f35b3480156102ac57600080fd5b506102b561088e565b6040516102c2919061090e565b60405180910390f35b60006001600a436102dc9190610aca565b6102e69190610b2a565b90506102f1816103f0565b50565b60035481565b600080600090505b60058054905081101561039d578273ffffffffffffffffffffffffffffffffffffffff166005828154811061033a57610339610b5e565b5b9060005260206000200160009054906101000a900473ffffffffffffffffffffffffffffffffffffffff1673ffffffffffffffffffffffffffffffffffffffff160361038a5760019150506103a3565b808061039590610b8d565b915050610302565b50600090505b919050565b60066020528060005260406000206000915090508060000154908060010154905082565b60008054906101000a900473ffffffffffffffffffffffffffffffffffffffff1681565b6103f8610894565b6000805b6005805490508110156105555760006005828154811061041f5761041e610b5e565b5b9060005260206000200160009054906101000a900473ffffffffffffffffffffffffffffffffffffffff16905084600660008373ffffffffffffffffffffffffffffffffffffffff1673ffffffffffffffffffffffffffffffffffffffff16815260200190815260200160002060010154036104ef57808484606481106104a9576104a8610b5e565b5b602002019073ffffffffffffffffffffffffffffffffffffffff16908173ffffffffffffffffffffffffffffffffffffffff168152505082806104eb90610b8d565b9350505b600660008273ffffffffffffffffffffffffffffffffffffffff1673ffffffffffffffffffffffffffffffffffffffff1681526020019081526020016000206000808201600090556001820160009055505050808061054d90610b8d565b9150506103fc565b506005600061056491906108b7565b600060646002546105759190610bd5565b905060005b8281101561063f57600073ffffffffffffffffffffffffffffffffffffffff168482606481106105ad576105ac610b5e565b5b602002015173ffffffffffffffffffffffffffffffffffffffff161461062c578381606481106105e0576105df610b5e565b5b602002015173ffffffffffffffffffffffffffffffffffffffff166108fc839081150290604051600060405180830381858888f1935050505015801561062a573d6000803e3d6000fd5b505b808061063790610b8d565b91505061057a565b5050505050565b61064f336102fa565b1561065957600080fd5b6001811015801561066b5750600a8111155b61067457600080fd5b60015434101561068357600080fd5b34600660003373ffffffffffffffffffffffffffffffffffffffff1673ffffffffffffffffffffffffffffffffffffffff1681526020019081526020016000206000018190555080600660003373ffffffffffffffffffffffffffffffffffffffff1673ffffffffffffffffffffffffffffffffffffffff168152602001908152602001600020600101819055506003600081548092919061072490610b8d565b91905055506005339080600181540180825580915050600190039060005260206000200160009091909190916101000a81548173ffffffffffffffffffffffffffffffffffffffff021916908373ffffffffffffffffffffffffffffffffffffffff160217905550346002600082825461079e9190610b2a565b92505081905550600454600354106107b9576107b86102cb565b5b50565b60015481565b3373ffffffffffffffffffffffffffffffffffffffff168173ffffffffffffffffffffffffffffffffffffffff1614610830576040517f08c379a000000000000000000000000000000000000000000000000000000000815260040161082790610c63565b60405180910390fd5b8073ffffffffffffffffffffffffffffffffffffffff16ff5b60045481565b6005818154811061085f57600080fd5b906000526020600020016000915054906101000a900473ffffffffffffffffffffffffffffffffffffffff1681565b60025481565b60405180610c800160405280606490602082028036833780820191505090505090565b50805460008255906000526020600020908101906108d591906108d8565b50565b5b808211156108f15760008160009055506001016108d9565b5090565b6000819050919050565b610908816108f5565b82525050565b600060208201905061092360008301846108ff565b92915050565b600080fd5b600073ffffffffffffffffffffffffffffffffffffffff82169050919050565b60006109598261092e565b9050919050565b6109698161094e565b811461097457600080fd5b50565b60008135905061098681610960565b92915050565b6000602082840312156109a2576109a1610929565b5b60006109b084828501610977565b91505092915050565b60008115159050919050565b6109ce816109b9565b82525050565b60006020820190506109e960008301846109c5565b92915050565b6000604082019050610a0460008301856108ff565b610a1160208301846108ff565b9392505050565b610a218161094e565b82525050565b6000602082019050610a3c6000830184610a18565b92915050565b610a4b816108f5565b8114610a5657600080fd5b50565b600081359050610a6881610a42565b92915050565b600060208284031215610a8457610a83610929565b5b6000610a9284828501610a59565b91505092915050565b7f4e487b7100000000000000000000000000000000000000000000000000000000600052601260045260246000fd5b6000610ad5826108f5565b9150610ae0836108f5565b925082610af057610aef610a9b565b5b828206905092915050565b7f4e487b7100000000000000000000000000000000000000000000000000000000600052601160045260246000fd5b6000610b35826108f5565b9150610b40836108f5565b9250828201905080821115610b5857610b57610afb565b5b92915050565b7f4e487b7100000000000000000000000000000000000000000000000000000000600052603260045260246000fd5b6000610b98826108f5565b91507fffffffffffffffffffffffffffffffffffffffffffffffffffffffffffffffff8203610bca57610bc9610afb565b5b600182019050919050565b6000610be0826108f5565b9150610beb836108f5565b925082610bfb57610bfa610a9b565b5b828204905092915050565b600082825260208201905092915050565b7f6f6e6c7920746865206f776e65722063616e2063616c6c207468697300000000600082015250565b6000610c4d601c83610c06565b9150610c5882610c17565b602082019050919050565b60006020820190508181036000830152610c7c81610c40565b905091905056fea264697066735822122068ca0beb45f19d4a281551565e72a8275ba3fb647ce2686a70276bf23b75be7864736f6c63430008110033",
					"opcodes": "PUSH1 0x80 PUSH1 0x40 MSTORE PUSH1 0x64 PUSH1 0x4 SSTORE CALLVALUE DUP1 ISZERO PUSH2 0x15 JUMPI PUSH1 0x0 DUP1 REVERT JUMPDEST POP PUSH1 0x40 MLOAD PUSH2 0xDBD CODESIZE SUB DUP1 PUSH2 0xDBD DUP4 CODECOPY DUP2 DUP2 ADD PUSH1 0x40 MSTORE DUP2 ADD SWAP1 PUSH2 0x37 SWAP2 SWAP1 PUSH2 0xC8 JUMP JUMPDEST CALLER PUSH1 0x0 DUP1 PUSH2 0x100 EXP DUP2 SLOAD DUP2 PUSH20 0xFFFFFFFFFFFFFFFFFFFFFFFFFFFFFFFFFFFFFFFF MUL NOT AND SWAP1 DUP4 PUSH20 0xFFFFFFFFFFFFFFFFFFFFFFFFFFFFFFFFFFFFFFFF AND MUL OR SWAP1 SSTORE POP PUSH1 0x0 DUP2 EQ PUSH2 0x87 JUMPI DUP1 PUSH1 0x1 DUP2 SWAP1 SSTORE POP JUMPDEST POP PUSH2 0xF5 JUMP JUMPDEST PUSH1 0x0 DUP1 REVERT JUMPDEST PUSH1 0x0 DUP2 SWAP1 POP SWAP2 SWAP1 POP JUMP JUMPDEST PUSH2 0xA5 DUP2 PUSH2 0x92 JUMP JUMPDEST DUP2 EQ PUSH2 0xB0 JUMPI PUSH1 0x0 DUP1 REVERT JUMPDEST POP JUMP JUMPDEST PUSH1 0x0 DUP2 MLOAD SWAP1 POP PUSH2 0xC2 DUP2 PUSH2 0x9C JUMP JUMPDEST SWAP3 SWAP2 POP POP JUMP JUMPDEST PUSH1 0x0 PUSH1 0x20 DUP3 DUP5 SUB SLT ISZERO PUSH2 0xDE JUMPI PUSH2 0xDD PUSH2 0x8D JUMP JUMPDEST JUMPDEST PUSH1 0x0 PUSH2 0xEC DUP5 DUP3 DUP6 ADD PUSH2 0xB3 JUMP JUMPDEST SWAP2 POP POP SWAP3 SWAP2 POP POP JUMP JUMPDEST PUSH2 0xCB9 DUP1 PUSH2 0x104 PUSH1 0x0 CODECOPY PUSH1 0x0 RETURN INVALID PUSH1 0x80 PUSH1 0x40 MSTORE PUSH1 0x4 CALLDATASIZE LT PUSH2 0xAB JUMPI PUSH1 0x0 CALLDATALOAD PUSH1 0xE0 SHR DUP1 PUSH4 0x7365870B GT PUSH2 0x64 JUMPI DUP1 PUSH4 0x7365870B EQ PUSH2 0x1C8 JUMPI DUP1 PUSH4 0xC38A8AFD EQ PUSH2 0x1E4 JUMPI DUP1 PUSH4 0xCBF0B0C0 EQ PUSH2 0x20F JUMPI DUP1 PUSH4 0xE08A96CD EQ PUSH2 0x238 JUMPI DUP1 PUSH4 0xF71D96CB EQ PUSH2 0x263 JUMPI DUP1 PUSH4 0xFE5E1853 EQ PUSH2 0x2A0 JUMPI PUSH2 0xB2 JUMP JUMPDEST DUP1 PUSH4 0xA50E361 EQ PUSH2 0xB7 JUMPI DUP1 PUSH4 0x2CA8C6D3 EQ PUSH2 0xCE JUMPI DUP1 PUSH4 0x4081D916 EQ PUSH2 0xF9 JUMPI DUP1 PUSH4 0x4B114691 EQ PUSH2 0x136 JUMPI DUP1 PUSH4 0x674DDB53 EQ PUSH2 0x174 JUMPI DUP1 PUSH4 0x6CA3FC3B EQ PUSH2 0x19F JUMPI PUSH2 0xB2 JUMP JUMPDEST CALLDATASIZE PUSH2 0xB2 JUMPI STOP JUMPDEST PUSH1 0x0 DUP1 REVERT JUMPDEST CALLVALUE DUP1 ISZERO PUSH2 0xC3 JUMPI PUSH1 0x0 DUP1 REVERT JUMPDEST POP PUSH2 0xCC PUSH2 0x2CB JUMP JUMPDEST STOP JUMPDEST CALLVALUE DUP1 ISZERO PUSH2 0xDA JUMPI PUSH1 0x0 DUP1 REVERT JUMPDEST POP PUSH2 0xE3 PUSH2 0x2F4 JUMP JUMPDEST PUSH1 0x40 MLOAD PUSH2 0xF0 SWAP2 SWAP1 PUSH2 0x90E JUMP JUMPDEST PUSH1 0x40 MLOAD DUP1 SWAP2 SUB SWAP1 RETURN JUMPDEST CALLVALUE DUP1 ISZERO PUSH2 0x105 JUMPI PUSH1 0x0 DUP1 REVERT JUMPDEST POP PUSH2 0x120 PUSH1 0x4 DUP1 CALLDATASIZE SUB DUP2 ADD SWAP1 PUSH2 0x11B SWAP2 SWAP1 PUSH2 0x98C JUMP JUMPDEST PUSH2 0x2FA JUMP JUMPDEST PUSH1 0x40 MLOAD PUSH2 0x12D SWAP2 SWAP1 PUSH2 0x9D4 JUMP JUMPDEST PUSH1 0x40 MLOAD DUP1 SWAP2 SUB SWAP1 RETURN JUMPDEST CALLVALUE DUP1 ISZERO PUSH2 0x142 JUMPI PUSH1 0x0 DUP1 REVERT JUMPDEST POP PUSH2 0x15D PUSH1 0x4 DUP1 CALLDATASIZE SUB DUP2 ADD SWAP1 PUSH2 0x158 SWAP2 SWAP1 PUSH2 0x98C JUMP JUMPDEST PUSH2 0x3A8 JUMP JUMPDEST PUSH1 0x40 MLOAD PUSH2 0x16B SWAP3 SWAP2 SWAP1 PUSH2 0x9EF JUMP JUMPDEST PUSH1 0x40 MLOAD DUP1 SWAP2 SUB SWAP1 RETURN JUMPDEST CALLVALUE DUP1 ISZERO PUSH2 0x180 JUMPI PUSH1 0x0 DUP1 REVERT JUMPDEST POP PUSH2 0x189 PUSH2 0x3CC JUMP JUMPDEST PUSH1 0x40 MLOAD PUSH2 0x196 SWAP2 SWAP1 PUSH2 0xA27 JUMP JUMPDEST PUSH1 0x40 MLOAD DUP1 SWAP2 SUB SWAP1 RETURN JUMPDEST CALLVALUE DUP1 ISZERO PUSH2 0x1AB JUMPI PUSH1 0x0 DUP1 REVERT JUMPDEST POP PUSH2 0x1C6 PUSH1 0x4 DUP1 CALLDATASIZE SUB DUP2 ADD SWAP1 PUSH2 0x1C1 SWAP2 SWAP1 PUSH2 0xA6E JUMP JUMPDEST PUSH2 0x3F0 JUMP JUMPDEST STOP JUMPDEST PUSH2 0x1E2 PUSH1 0x4 DUP1 CALLDATASIZE SUB DUP2 ADD SWAP1 PUSH2 0x1DD SWAP2 SWAP1 PUSH2 0xA6E JUMP JUMPDEST PUSH2 0x646 JUMP JUMPDEST STOP JUMPDEST CALLVALUE DUP1 ISZERO PUSH2 0x1F0 JUMPI PUSH1 0x0 DUP1 REVERT JUMPDEST POP PUSH2 0x1F9 PUSH2 0x7BC JUMP JUMPDEST PUSH1 0x40 MLOAD PUSH2 0x206 SWAP2 SWAP1 PUSH2 0x90E JUMP JUMPDEST PUSH1 0x40 MLOAD DUP1 SWAP2 SUB SWAP1 RETURN JUMPDEST CALLVALUE DUP1 ISZERO PUSH2 0x21B JUMPI PUSH1 0x0 DUP1 REVERT JUMPDEST POP PUSH2 0x236 PUSH1 0x4 DUP1 CALLDATASIZE SUB DUP2 ADD SWAP1 PUSH2 0x231 SWAP2 SWAP1 PUSH2 0x98C JUMP JUMPDEST PUSH2 0x7C2 JUMP JUMPDEST STOP JUMPDEST CALLVALUE DUP1 ISZERO PUSH2 0x244 JUMPI PUSH1 0x0 DUP1 REVERT JUMPDEST POP PUSH2 0x24D PUSH2 0x849 JUMP JUMPDEST PUSH1 0x40 MLOAD PUSH2 0x25A SWAP2 SWAP1 PUSH2 0x90E JUMP JUMPDEST PUSH1 0x40 MLOAD DUP1 SWAP2 SUB SWAP1 RETURN JUMPDEST CALLVALUE DUP1 ISZERO PUSH2 0x26F JUMPI PUSH1 0x0 DUP1 REVERT JUMPDEST POP PUSH2 0x28A PUSH1 0x4 DUP1 CALLDATASIZE SUB DUP2 ADD SWAP1 PUSH2 0x285 SWAP2 SWAP1 PUSH2 0xA6E JUMP JUMPDEST PUSH2 0x84F JUMP JUMPDEST PUSH1 0x40 MLOAD PUSH2 0x297 SWAP2 SWAP1 PUSH2 0xA27 JUMP JUMPDEST PUSH1 0x40 MLOAD DUP1 SWAP2 SUB SWAP1 RETURN JUMPDEST CALLVALUE DUP1 ISZERO PUSH2 0x2AC JUMPI PUSH1 0x0 DUP1 REVERT JUMPDEST POP PUSH2 0x2B5 PUSH2 0x88E JUMP JUMPDEST PUSH1 0x40 MLOAD PUSH2 0x2C2 SWAP2 SWAP1 PUSH2 0x90E JUMP JUMPDEST PUSH1 0x40 MLOAD DUP1 SWAP2 SUB SWAP1 RETURN JUMPDEST PUSH1 0x0 PUSH1 0x1 PUSH1 0xA NUMBER PUSH2 0x2DC SWAP2 SWAP1 PUSH2 0xACA JUMP JUMPDEST PUSH2 0x2E6 SWAP2 SWAP1 PUSH2 0xB2A JUMP JUMPDEST SWAP1 POP PUSH2 0x2F1 DUP2 PUSH2 0x3F0 JUMP JUMPDEST POP JUMP JUMPDEST PUSH1 0x3 SLOAD DUP2 JUMP JUMPDEST PUSH1 0x0 DUP1 PUSH1 0x0 SWAP1 POP JUMPDEST PUSH1 0x5 DUP1 SLOAD SWAP1 POP DUP2 LT ISZERO PUSH2 0x39D JUMPI DUP3 PUSH20 0xFFFFFFFFFFFFFFFFFFFFFFFFFFFFFFFFFFFFFFFF AND PUSH1 0x5 DUP3 DUP2 SLOAD DUP2 LT PUSH2 0x33A JUMPI PUSH2 0x339 PUSH2 0xB5E JUMP JUMPDEST JUMPDEST SWAP1 PUSH1 0x0 MSTORE PUSH1 0x20 PUSH1 0x0 KECCAK256 ADD PUSH1 0x0 SWAP1 SLOAD SWAP1 PUSH2 0x100 EXP SWAP1 DIV PUSH20 0xFFFFFFFFFFFFFFFFFFFFFFFFFFFFFFFFFFFFFFFF AND PUSH20 0xFFFFFFFFFFFFFFFFFFFFFFFFFFFFFFFFFFFFFFFF AND SUB PUSH2 0x38A JUMPI PUSH1 0x1 SWAP2 POP POP PUSH2 0x3A3 JUMP JUMPDEST DUP1 DUP1 PUSH2 0x395 SWAP1 PUSH2 0xB8D JUMP JUMPDEST SWAP2 POP POP PUSH2 0x302 JUMP JUMPDEST POP PUSH1 0x0 SWAP1 POP JUMPDEST SWAP2 SWAP1 POP JUMP JUMPDEST PUSH1 0x6 PUSH1 0x20 MSTORE DUP1 PUSH1 0x0 MSTORE PUSH1 0x40 PUSH1 0x0 KECCAK256 PUSH1 0x0 SWAP2 POP SWAP1 POP DUP1 PUSH1 0x0 ADD SLOAD SWAP1 DUP1 PUSH1 0x1 ADD SLOAD SWAP1 POP DUP3 JUMP JUMPDEST PUSH1 0x0 DUP1 SLOAD SWAP1 PUSH2 0x100 EXP SWAP1 DIV PUSH20 0xFFFFFFFFFFFFFFFFFFFFFFFFFFFFFFFFFFFFFFFF AND DUP2 JUMP JUMPDEST PUSH2 0x3F8 PUSH2 0x894 JUMP JUMPDEST PUSH1 0x0 DUP1 JUMPDEST PUSH1 0x5 DUP1 SLOAD SWAP1 POP DUP2 LT ISZERO PUSH2 0x555 JUMPI PUSH1 0x0 PUSH1 0x5 DUP3 DUP2 SLOAD DUP2 LT PUSH2 0x41F JUMPI PUSH2 0x41E PUSH2 0xB5E JUMP JUMPDEST JUMPDEST SWAP1 PUSH1 0x0 MSTORE PUSH1 0x20 PUSH1 0x0 KECCAK256 ADD PUSH1 0x0 SWAP1 SLOAD SWAP1 PUSH2 0x100 EXP SWAP1 DIV PUSH20 0xFFFFFFFFFFFFFFFFFFFFFFFFFFFFFFFFFFFFFFFF AND SWAP1 POP DUP5 PUSH1 0x6 PUSH1 0x0 DUP4 PUSH20 0xFFFFFFFFFFFFFFFFFFFFFFFFFFFFFFFFFFFFFFFF AND PUSH20 0xFFFFFFFFFFFFFFFFFFFFFFFFFFFFFFFFFFFFFFFF AND DUP2 MSTORE PUSH1 0x20 ADD SWAP1 DUP2 MSTORE PUSH1 0x20 ADD PUSH1 0x0 KECCAK256 PUSH1 0x1 ADD SLOAD SUB PUSH2 0x4EF JUMPI DUP1 DUP5 DUP5 PUSH1 0x64 DUP2 LT PUSH2 0x4A9 JUMPI PUSH2 0x4A8 PUSH2 0xB5E JUMP JUMPDEST JUMPDEST PUSH1 0x20 MUL ADD SWAP1 PUSH20 0xFFFFFFFFFFFFFFFFFFFFFFFFFFFFFFFFFFFFFFFF AND SWAP1 DUP2 PUSH20 0xFFFFFFFFFFFFFFFFFFFFFFFFFFFFFFFFFFFFFFFF AND DUP2 MSTORE POP POP DUP3 DUP1 PUSH2 0x4EB SWAP1 PUSH2 0xB8D JUMP JUMPDEST SWAP4 POP POP JUMPDEST PUSH1 0x6 PUSH1 0x0 DUP3 PUSH20 0xFFFFFFFFFFFFFFFFFFFFFFFFFFFFFFFFFFFFFFFF AND PUSH20 0xFFFFFFFFFFFFFFFFFFFFFFFFFFFFFFFFFFFFFFFF AND DUP2 MSTORE PUSH1 0x20 ADD SWAP1 DUP2 MSTORE PUSH1 0x20 ADD PUSH1 0x0 KECCAK256 PUSH1 0x0 DUP1 DUP3 ADD PUSH1 0x0 SWAP1 SSTORE PUSH1 0x1 DUP3 ADD PUSH1 0x0 SWAP1 SSTORE POP POP POP DUP1 DUP1 PUSH2 0x54D SWAP1 PUSH2 0xB8D JUMP JUMPDEST SWAP2 POP POP PUSH2 0x3FC JUMP JUMPDEST POP PUSH1 0x5 PUSH1 0x0 PUSH2 0x564 SWAP2 SWAP1 PUSH2 0x8B7 JUMP JUMPDEST PUSH1 0x0 PUSH1 0x64 PUSH1 0x2 SLOAD PUSH2 0x575 SWAP2 SWAP1 PUSH2 0xBD5 JUMP JUMPDEST SWAP1 POP PUSH1 0x0 JUMPDEST DUP3 DUP2 LT ISZERO PUSH2 0x63F JUMPI PUSH1 0x0 PUSH20 0xFFFFFFFFFFFFFFFFFFFFFFFFFFFFFFFFFFFFFFFF AND DUP5 DUP3 PUSH1 0x64 DUP2 LT PUSH2 0x5AD JUMPI PUSH2 0x5AC PUSH2 0xB5E JUMP JUMPDEST JUMPDEST PUSH1 0x20 MUL ADD MLOAD PUSH20 0xFFFFFFFFFFFFFFFFFFFFFFFFFFFFFFFFFFFFFFFF AND EQ PUSH2 0x62C JUMPI DUP4 DUP2 PUSH1 0x64 DUP2 LT PUSH2 0x5E0 JUMPI PUSH2 0x5DF PUSH2 0xB5E JUMP JUMPDEST JUMPDEST PUSH1 0x20 MUL ADD MLOAD PUSH20 0xFFFFFFFFFFFFFFFFFFFFFFFFFFFFFFFFFFFFFFFF AND PUSH2 0x8FC DUP4 SWAP1 DUP2 ISZERO MUL SWAP1 PUSH1 0x40 MLOAD PUSH1 0x0 PUSH1 0x40 MLOAD DUP1 DUP4 SUB DUP2 DUP6 DUP9 DUP9 CALL SWAP4 POP POP POP POP ISZERO DUP1 ISZERO PUSH2 0x62A JUMPI RETURNDATASIZE PUSH1 0x0 DUP1 RETURNDATACOPY RETURNDATASIZE PUSH1 0x0 REVERT JUMPDEST POP JUMPDEST DUP1 DUP1 PUSH2 0x637 SWAP1 PUSH2 0xB8D JUMP JUMPDEST SWAP2 POP POP PUSH2 0x57A JUMP JUMPDEST POP POP POP POP POP JUMP JUMPDEST PUSH2 0x64F CALLER PUSH2 0x2FA JUMP JUMPDEST ISZERO PUSH2 0x659 JUMPI PUSH1 0x0 DUP1 REVERT JUMPDEST PUSH1 0x1 DUP2 LT ISZERO DUP1 ISZERO PUSH2 0x66B JUMPI POP PUSH1 0xA DUP2 GT ISZERO JUMPDEST PUSH2 0x674 JUMPI PUSH1 0x0 DUP1 REVERT JUMPDEST PUSH1 0x1 SLOAD CALLVALUE LT ISZERO PUSH2 0x683 JUMPI PUSH1 0x0 DUP1 REVERT JUMPDEST CALLVALUE PUSH1 0x6 PUSH1 0x0 CALLER PUSH20 0xFFFFFFFFFFFFFFFFFFFFFFFFFFFFFFFFFFFFFFFF AND PUSH20 0xFFFFFFFFFFFFFFFFFFFFFFFFFFFFFFFFFFFFFFFF AND DUP2 MSTORE PUSH1 0x20 ADD SWAP1 DUP2 MSTORE PUSH1 0x20 ADD PUSH1 0x0 KECCAK256 PUSH1 0x0 ADD DUP2 SWAP1 SSTORE POP DUP1 PUSH1 0x6 PUSH1 0x0 CALLER PUSH20 0xFFFFFFFFFFFFFFFFFFFFFFFFFFFFFFFFFFFFFFFF AND PUSH20 0xFFFFFFFFFFFFFFFFFFFFFFFFFFFFFFFFFFFFFFFF AND DUP2 MSTORE PUSH1 0x20 ADD SWAP1 DUP2 MSTORE PUSH1 0x20 ADD PUSH1 0x0 KECCAK256 PUSH1 0x1 ADD DUP2 SWAP1 SSTORE POP PUSH1 0x3 PUSH1 0x0 DUP2 SLOAD DUP1 SWAP3 SWAP2 SWAP1 PUSH2 0x724 SWAP1 PUSH2 0xB8D JUMP JUMPDEST SWAP2 SWAP1 POP SSTORE POP PUSH1 0x5 CALLER SWAP1 DUP1 PUSH1 0x1 DUP2 SLOAD ADD DUP1 DUP3 SSTORE DUP1 SWAP2 POP POP PUSH1 0x1 SWAP1 SUB SWAP1 PUSH1 0x0 MSTORE PUSH1 0x20 PUSH1 0x0 KECCAK256 ADD PUSH1 0x0 SWAP1 SWAP2 SWAP1 SWAP2 SWAP1 SWAP2 PUSH2 0x100 EXP DUP2 SLOAD DUP2 PUSH20 0xFFFFFFFFFFFFFFFFFFFFFFFFFFFFFFFFFFFFFFFF MUL NOT AND SWAP1 DUP4 PUSH20 0xFFFFFFFFFFFFFFFFFFFFFFFFFFFFFFFFFFFFFFFF AND MUL OR SWAP1 SSTORE POP CALLVALUE PUSH1 0x2 PUSH1 0x0 DUP3 DUP3 SLOAD PUSH2 0x79E SWAP2 SWAP1 PUSH2 0xB2A JUMP JUMPDEST SWAP3 POP POP DUP2 SWAP1 SSTORE POP PUSH1 0x4 SLOAD PUSH1 0x3 SLOAD LT PUSH2 0x7B9 JUMPI PUSH2 0x7B8 PUSH2 0x2CB JUMP JUMPDEST JUMPDEST POP JUMP JUMPDEST PUSH1 0x1 SLOAD DUP2 JUMP JUMPDEST CALLER PUSH20 0xFFFFFFFFFFFFFFFFFFFFFFFFFFFFFFFFFFFFFFFF AND DUP2 PUSH20 0xFFFFFFFFFFFFFFFFFFFFFFFFFFFFFFFFFFFFFFFF AND EQ PUSH2 0x830 JUMPI PUSH1 0x40 MLOAD PUSH32 0x8C379A000000000000000000000000000000000000000000000000000000000 DUP2 MSTORE PUSH1 0x4 ADD PUSH2 0x827 SWAP1 PUSH2 0xC63 JUMP JUMPDEST PUSH1 0x40 MLOAD DUP1 SWAP2 SUB SWAP1 REVERT JUMPDEST DUP1 PUSH20 0xFFFFFFFFFFFFFFFFFFFFFFFFFFFFFFFFFFFFFFFF AND SELFDESTRUCT JUMPDEST PUSH1 0x4 SLOAD DUP2 JUMP JUMPDEST PUSH1 0x5 DUP2 DUP2 SLOAD DUP2 LT PUSH2 0x85F JUMPI PUSH1 0x0 DUP1 REVERT JUMPDEST SWAP1 PUSH1 0x0 MSTORE PUSH1 0x20 PUSH1 0x0 KECCAK256 ADD PUSH1 0x0 SWAP2 POP SLOAD SWAP1 PUSH2 0x100 EXP SWAP1 DIV PUSH20 0xFFFFFFFFFFFFFFFFFFFFFFFFFFFFFFFFFFFFFFFF AND DUP2 JUMP JUMPDEST PUSH1 0x2 SLOAD DUP2 JUMP JUMPDEST PUSH1 0x40 MLOAD DUP1 PUSH2 0xC80 ADD PUSH1 0x40 MSTORE DUP1 PUSH1 0x64 SWAP1 PUSH1 0x20 DUP3 MUL DUP1 CALLDATASIZE DUP4 CALLDATACOPY DUP1 DUP3 ADD SWAP2 POP POP SWAP1 POP POP SWAP1 JUMP JUMPDEST POP DUP1 SLOAD PUSH1 0x0 DUP3 SSTORE SWAP1 PUSH1 0x0 MSTORE PUSH1 0x20 PUSH1 0x0 KECCAK256 SWAP1 DUP2 ADD SWAP1 PUSH2 0x8D5 SWAP2 SWAP1 PUSH2 0x8D8 JUMP JUMPDEST POP JUMP JUMPDEST JUMPDEST DUP1 DUP3 GT ISZERO PUSH2 0x8F1 JUMPI PUSH1 0x0 DUP2 PUSH1 0x0 SWAP1 SSTORE POP PUSH1 0x1 ADD PUSH2 0x8D9 JUMP JUMPDEST POP SWAP1 JUMP JUMPDEST PUSH1 0x0 DUP2 SWAP1 POP SWAP2 SWAP1 POP JUMP JUMPDEST PUSH2 0x908 DUP2 PUSH2 0x8F5 JUMP JUMPDEST DUP3 MSTORE POP POP JUMP JUMPDEST PUSH1 0x0 PUSH1 0x20 DUP3 ADD SWAP1 POP PUSH2 0x923 PUSH1 0x0 DUP4 ADD DUP5 PUSH2 0x8FF JUMP JUMPDEST SWAP3 SWAP2 POP POP JUMP JUMPDEST PUSH1 0x0 DUP1 REVERT JUMPDEST PUSH1 0x0 PUSH20 0xFFFFFFFFFFFFFFFFFFFFFFFFFFFFFFFFFFFFFFFF DUP3 AND SWAP1 POP SWAP2 SWAP1 POP JUMP JUMPDEST PUSH1 0x0 PUSH2 0x959 DUP3 PUSH2 0x92E JUMP JUMPDEST SWAP1 POP SWAP2 SWAP1 POP JUMP JUMPDEST PUSH2 0x969 DUP2 PUSH2 0x94E JUMP JUMPDEST DUP2 EQ PUSH2 0x974 JUMPI PUSH1 0x0 DUP1 REVERT JUMPDEST POP JUMP JUMPDEST PUSH1 0x0 DUP2 CALLDATALOAD SWAP1 POP PUSH2 0x986 DUP2 PUSH2 0x960 JUMP JUMPDEST SWAP3 SWAP2 POP POP JUMP JUMPDEST PUSH1 0x0 PUSH1 0x20 DUP3 DUP5 SUB SLT ISZERO PUSH2 0x9A2 JUMPI PUSH2 0x9A1 PUSH2 0x929 JUMP JUMPDEST JUMPDEST PUSH1 0x0 PUSH2 0x9B0 DUP5 DUP3 DUP6 ADD PUSH2 0x977 JUMP JUMPDEST SWAP2 POP POP SWAP3 SWAP2 POP POP JUMP JUMPDEST PUSH1 0x0 DUP2 ISZERO ISZERO SWAP1 POP SWAP2 SWAP1 POP JUMP JUMPDEST PUSH2 0x9CE DUP2 PUSH2 0x9B9 JUMP JUMPDEST DUP3 MSTORE POP POP JUMP JUMPDEST PUSH1 0x0 PUSH1 0x20 DUP3 ADD SWAP1 POP PUSH2 0x9E9 PUSH1 0x0 DUP4 ADD DUP5 PUSH2 0x9C5 JUMP JUMPDEST SWAP3 SWAP2 POP POP JUMP JUMPDEST PUSH1 0x0 PUSH1 0x40 DUP3 ADD SWAP1 POP PUSH2 0xA04 PUSH1 0x0 DUP4 ADD DUP6 PUSH2 0x8FF JUMP JUMPDEST PUSH2 0xA11 PUSH1 0x20 DUP4 ADD DUP5 PUSH2 0x8FF JUMP JUMPDEST SWAP4 SWAP3 POP POP POP JUMP JUMPDEST PUSH2 0xA21 DUP2 PUSH2 0x94E JUMP JUMPDEST DUP3 MSTORE POP POP JUMP JUMPDEST PUSH1 0x0 PUSH1 0x20 DUP3 ADD SWAP1 POP PUSH2 0xA3C PUSH1 0x0 DUP4 ADD DUP5 PUSH2 0xA18 JUMP JUMPDEST SWAP3 SWAP2 POP POP JUMP JUMPDEST PUSH2 0xA4B DUP2 PUSH2 0x8F5 JUMP JUMPDEST DUP2 EQ PUSH2 0xA56 JUMPI PUSH1 0x0 DUP1 REVERT JUMPDEST POP JUMP JUMPDEST PUSH1 0x0 DUP2 CALLDATALOAD SWAP1 POP PUSH2 0xA68 DUP2 PUSH2 0xA42 JUMP JUMPDEST SWAP3 SWAP2 POP POP JUMP JUMPDEST PUSH1 0x0 PUSH1 0x20 DUP3 DUP5 SUB SLT ISZERO PUSH2 0xA84 JUMPI PUSH2 0xA83 PUSH2 0x929 JUMP JUMPDEST JUMPDEST PUSH1 0x0 PUSH2 0xA92 DUP5 DUP3 DUP6 ADD PUSH2 0xA59 JUMP JUMPDEST SWAP2 POP POP SWAP3 SWAP2 POP POP JUMP JUMPDEST PUSH32 0x4E487B7100000000000000000000000000000000000000000000000000000000 PUSH1 0x0 MSTORE PUSH1 0x12 PUSH1 0x4 MSTORE PUSH1 0x24 PUSH1 0x0 REVERT JUMPDEST PUSH1 0x0 PUSH2 0xAD5 DUP3 PUSH2 0x8F5 JUMP JUMPDEST SWAP2 POP PUSH2 0xAE0 DUP4 PUSH2 0x8F5 JUMP JUMPDEST SWAP3 POP DUP3 PUSH2 0xAF0 JUMPI PUSH2 0xAEF PUSH2 0xA9B JUMP JUMPDEST JUMPDEST DUP3 DUP3 MOD SWAP1 POP SWAP3 SWAP2 POP POP JUMP JUMPDEST PUSH32 0x4E487B7100000000000000000000000000000000000000000000000000000000 PUSH1 0x0 MSTORE PUSH1 0x11 PUSH1 0x4 MSTORE PUSH1 0x24 PUSH1 0x0 REVERT JUMPDEST PUSH1 0x0 PUSH2 0xB35 DUP3 PUSH2 0x8F5 JUMP JUMPDEST SWAP2 POP PUSH2 0xB40 DUP4 PUSH2 0x8F5 JUMP JUMPDEST SWAP3 POP DUP3 DUP3 ADD SWAP1 POP DUP1 DUP3 GT ISZERO PUSH2 0xB58 JUMPI PUSH2 0xB57 PUSH2 0xAFB JUMP JUMPDEST JUMPDEST SWAP3 SWAP2 POP POP JUMP JUMPDEST PUSH32 0x4E487B7100000000000000000000000000000000000000000000000000000000 PUSH1 0x0 MSTORE PUSH1 0x32 PUSH1 0x4 MSTORE PUSH1 0x24 PUSH1 0x0 REVERT JUMPDEST PUSH1 0x0 PUSH2 0xB98 DUP3 PUSH2 0x8F5 JUMP JUMPDEST SWAP2 POP PUSH32 0xFFFFFFFFFFFFFFFFFFFFFFFFFFFFFFFFFFFFFFFFFFFFFFFFFFFFFFFFFFFFFFFF DUP3 SUB PUSH2 0xBCA JUMPI PUSH2 0xBC9 PUSH2 0xAFB JUMP JUMPDEST JUMPDEST PUSH1 0x1 DUP3 ADD SWAP1 POP SWAP2 SWAP1 POP JUMP JUMPDEST PUSH1 0x0 PUSH2 0xBE0 DUP3 PUSH2 0x8F5 JUMP JUMPDEST SWAP2 POP PUSH2 0xBEB DUP4 PUSH2 0x8F5 JUMP JUMPDEST SWAP3 POP DUP3 PUSH2 0xBFB JUMPI PUSH2 0xBFA PUSH2 0xA9B JUMP JUMPDEST JUMPDEST DUP3 DUP3 DIV SWAP1 POP SWAP3 SWAP2 POP POP JUMP JUMPDEST PUSH1 0x0 DUP3 DUP3 MSTORE PUSH1 0x20 DUP3 ADD SWAP1 POP SWAP3 SWAP2 POP POP JUMP JUMPDEST PUSH32 0x6F6E6C7920746865206F776E65722063616E2063616C6C207468697300000000 PUSH1 0x0 DUP3 ADD MSTORE POP JUMP JUMPDEST PUSH1 0x0 PUSH2 0xC4D PUSH1 0x1C DUP4 PUSH2 0xC06 JUMP JUMPDEST SWAP2 POP PUSH2 0xC58 DUP3 PUSH2 0xC17 JUMP JUMPDEST PUSH1 0x20 DUP3 ADD SWAP1 POP SWAP2 SWAP1 POP JUMP JUMPDEST PUSH1 0x0 PUSH1 0x20 DUP3 ADD SWAP1 POP DUP2 DUP2 SUB PUSH1 0x0 DUP4 ADD MSTORE PUSH2 0xC7C DUP2 PUSH2 0xC40 JUMP JUMPDEST SWAP1 POP SWAP2 SWAP1 POP JUMP INVALID LOG2 PUSH5 0x6970667358 0x22 SLT KECCAK256 PUSH9 0xCA0BEB45F19D4A2815 MLOAD JUMP 0x5E PUSH19 0xA8275BA3FB647CE2686A70276BF23B75BE7864 PUSH20 0x6F6C634300081100330000000000000000000000 "
				},
				"gasEstimates": {
					"creation": {
						"codeDepositCost": "651400",
						"executionCost": "infinite",
						"totalCost": "infinite"
					},
					"external": {
						"accountOwner()": "2600",
						"bet(uint256)": "infinite",
						"checkPlayerExists(address)": "infinite",
						"distributePrizes(uint256)": "infinite",
						"generateNumberWinner()": "infinite",
						"kill(address)": "28131",
						"maxAmountOfBets()": "2495",
						"minimumBet()": "2451",
						"numberOfBets()": "2452",
						"playerInfo(address)": "infinite",
						"players(uint256)": "5044",
						"totalBet()": "2539"
					}
				},
				"methodIdentifiers": {
					"accountOwner()": "674ddb53",
					"bet(uint256)": "7365870b",
					"checkPlayerExists(address)": "4081d916",
					"distributePrizes(uint256)": "6ca3fc3b",
					"generateNumberWinner()": "0a50e361",
					"kill(address)": "cbf0b0c0",
					"maxAmountOfBets()": "e08a96cd",
					"minimumBet()": "c38a8afd",
					"numberOfBets()": "2ca8c6d3",
					"playerInfo(address)": "4b114691",
					"players(uint256)": "f71d96cb",
					"totalBet()": "fe5e1853"
				}
			},
			"storageLayout": {
				"storage": [
					{
						"astId": 3,
						"contract": "casino-ethereum/contracts/Casino.sol:Casino",
						"label": "accountOwner",
						"offset": 0,
						"slot": "0",
						"type": "t_address"
					},
					{
						"astId": 5,
						"contract": "casino-ethereum/contracts/Casino.sol:Casino",
						"label": "minimumBet",
						"offset": 0,
						"slot": "1",
						"type": "t_uint256"
					},
					{
						"astId": 7,
						"contract": "casino-ethereum/contracts/Casino.sol:Casino",
						"label": "totalBet",
						"offset": 0,
						"slot": "2",
						"type": "t_uint256"
					},
					{
						"astId": 9,
						"contract": "casino-ethereum/contracts/Casino.sol:Casino",
						"label": "numberOfBets",
						"offset": 0,
						"slot": "3",
						"type": "t_uint256"
					},
					{
						"astId": 12,
						"contract": "casino-ethereum/contracts/Casino.sol:Casino",
						"label": "maxAmountOfBets",
						"offset": 0,
						"slot": "4",
						"type": "t_uint256"
					},
					{
						"astId": 15,
						"contract": "casino-ethereum/contracts/Casino.sol:Casino",
						"label": "players",
						"offset": 0,
						"slot": "5",
						"type": "t_array(t_address)dyn_storage"
					},
					{
						"astId": 25,
						"contract": "casino-ethereum/contracts/Casino.sol:Casino",
						"label": "playerInfo",
						"offset": 0,
						"slot": "6",
						"type": "t_mapping(t_address,t_struct(Player)20_storage)"
					}
				],
				"types": {
					"t_address": {
						"encoding": "inplace",
						"label": "address",
						"numberOfBytes": "20"
					},
					"t_array(t_address)dyn_storage": {
						"base": "t_address",
						"encoding": "dynamic_array",
						"label": "address[]",
						"numberOfBytes": "32"
					},
					"t_mapping(t_address,t_struct(Player)20_storage)": {
						"encoding": "mapping",
						"key": "t_address",
						"label": "mapping(address => struct Casino.Player)",
						"numberOfBytes": "32",
						"value": "t_struct(Player)20_storage"
					},
					"t_struct(Player)20_storage": {
						"encoding": "inplace",
						"label": "struct Casino.Player",
						"members": [
							{
								"astId": 17,
								"contract": "casino-ethereum/contracts/Casino.sol:Casino",
								"label": "amountBet",
								"offset": 0,
								"slot": "0",
								"type": "t_uint256"
							},
							{
								"astId": 19,
								"contract": "casino-ethereum/contracts/Casino.sol:Casino",
								"label": "numberSelected",
								"offset": 0,
								"slot": "1",
								"type": "t_uint256"
							}
						],
						"numberOfBytes": "64"
					},
					"t_uint256": {
						"encoding": "inplace",
						"label": "uint256",
						"numberOfBytes": "32"
					}
				}
			},
			"userdoc": {
				"kind": "user",
				"methods": {},
				"version": 1
			}
		}
	}
}